:100000000C9410160C9441160C9441160C94411645
:100010000C9441160C9441160C9441160C94411604
:100020000C9441160C9441160C9441160C944116F4
:100030000C9441160C9441160C9441160C944116E4
:100040000C9441160C94DA900C9441160C944116C1
:100050000C9441160C9441160C9440800C94EED5EF
:100060000C9441160C94EF410C9441160C944116DB
:100070000C9441160C9441160C9441160C944116A4
:100080000C9441160C9441160C9441160C94411694
:100090000C947A400C94A3400C9441160C94411695
:1000A0000C9441160C9441160C9441160C94411674
:1000B0000C9441160C9441160C9441160C94411664
:1000C0000C9441160C9441160C9441160C94411654
:1000D0000C9441160C9441160C9441160C94411644
:1000E0000C9441161F313231552D922DFD2D3A2E93
:1000F000A52EE22E4D2F9A2F972DB02D3F2E582E44
:10010000E72E002FE72F3530DF2DF82D872EA02E7C
:100110002F2F482F8330D130DF31E5316F318B31D4
:10012000663A773AB43AC23ACF3AF33A183B703B60
:100130005E3CEA3C573145313E3DA43E643D8C3D3A
:10014000B43DDC3D043EA43EA43EA43EA43EA43EF9
:10015000A43EA43EA43E3C3E3F3E433EA43EA43EBD
:100160002C3E413CB93BFB3B1E3CE931013219328C
:1001700031324932613279329132A932C132D932C7
:10018000F1320933213339335133693381339933B0
:10019000B133C933E133F93311342934713459346B
:1001A00041348934A134B934D134E934FE341335BF
:1001B00028353D35523567357C359135A635BB350B
:1001C000D035E535FA350F362436393651366936AD
:1001D0008136F5360C3723373A37513768377F3752
:1001E0009637AD37C437DB37F23709382038373820
:1001F0004E3865387C389338AA38DF38F038013902
:1002000012392339343945395639673978398939BA
:100210009A39AB39BC39DE39EF39003A113A223A12
:100220009936B036C736DE36CD39333AC138D03894
:10023000443A553A22422842394244424C426142B1
:10024000504261425442584261425E42E68CE98C1F
:10025000EC8CEF8CF28CF58CF88CFB8CFE8C018D89
:10026000048D078D0A8DFAA0FDA0ECA0F0A0F6A0E9
:1002700034A101A105A10BA10FA113A119A11DA1D9
:1002800021A134A127A12BA12FA145A64AA64FA6A3
:1002900059A663A6DCA66DA675A67DA687A691A61F
:1002A0009BA6AAA6B4A6DCA6BEA6C8A6D2A6DDCDED
:1002B000F9CD51CFA0CFDBD0ADCFB4CFE4CFCDD0EF
:1002C000EBCFCDD0084AD73B3BCE016E84BCBFFDFF
:1002D000C12F3D6C74319ABD56833DDA3D00C77F16
:1002E00011BED9E4BB4C3E916BAAAABE00000080AF
:1002F0003F05A84CCDB2D44EB93836A9020C50B93E
:10030000918688083CA6AAAA2ABE000000803F0762
:10031000634236B79BD8A71A39685618AEBAAB55A0
:100320008C1D3CB7CC5763BD6DEDFD753EF6177265
:1003300031BF000000803F08000000BE9224491237
:100340003EABAAAA2ABECDCCCC4C3E00000080BE5B
:10035000ABAAAAAA3E00000000BF000000803F0038
:1003600000000000084178D3BB4387D1133D190E2C
:100370003CC3BD4282AD2B3E68EC8276BED98FE194
:10038000A93E4C80EFFFBE01C4FF7F3F000000008C
:1003900000000C94C23A0C94D2A60C9434A10C9494
:1003A000AD370C94A3DE0C9424360C9421330C94BA
:1003B000B4CF0C94582E0C9431320C9419320C9406
:1003C000EF390C940F360C94B93B0C94D1300C944B
:1003D00011340C94552D0C9454420C94FE8C0C94B6
:1003E00061420C9429340C9450420C943A2E0C9493
:1003F0006F310C943D350C94F0A00C947C350C942A
:10040000B02D0C94AA380C94E98C0C949BA60C94F7
:10041000703B0C94F58C0C9489390C9452350C94E7
:10042000B1330C941F310C94C8DE0C940FA10C94C2
:1004300032310C94FDA00C947C380C94CD390C9482
:100440009A390C94D93E0C9401320C9427A10C9447
:10045000F8680C94DE390C94972D0C9439330C9475
:1004600041340C9439360C9421A10C9465380C94C9
:10047000ECA00C94DF2D0C94C1380C941E3C0C9411
:10048000E22E0C94FAA00C9413A10C94E68C0C941C
:10049000EC8C0C94F6A00C94FB3B0C94A0CF0C9429
:1004A0002F2F0C9422420C943E3D0C94F5360C9464
:1004B000B43D0C94A43E0C942FA10C94443A0C949B
:1004C000FA350C94E5310C94B43A0C9493380C94AE
:1004D0003F2E0C94CE680C9449320C94003A0C9444
:1004E000F2370C94FD2D0C94F9330C9401A10C946B
:1004F000C9330C9463A60C9475A60C9419A10C94A2
:10050000043E0C94B9340C94DB370C9467350C948E
:10051000F33A0C946DA60C94CF3A0C94333A0C94A5
:1005200051330C9491A60C94CDD00C9439420C9478
:1005300009330C94A52E0C9481360C947DA60C9452
:1005400058420C9459340C9461320C94D1340C946C
:10055000F0380C94DCA60C941DA10C9499360C94E4
:10056000E72E0C94223A0C9467390C94048D0C9469
:1005700091320C94BEA60C94DF380C940A8D0C9426
:1005800034390C944FA60C94002F0C9469330C94BE
:10059000413C0C9476C80C94B4A60C9459A60C94C7
:1005A00045A60C94553A0C9481330C945E3C0C9403
:1005B0000C370C94F88C0C94DC3D0C94F9CD0C9415
:1005C000EBCF0C94AAA60C94113A0C94F28C0C94D8
:1005D000643D0C94773A0C9428420C9428350C9482
:1005E00012390C9457310C94A02E0C94D0350C94E5
:1005F000E72F0C9445390C944C420C94ADCF0C94DD
:100600002C3E0C9469360C9437380C94DE360C94DE
:1006100001390C9451CF0C94DA3E0C9445310C9472
:10062000C1320C9423370C94433E0C945E420C94DC
:10063000BC390C947F370C94183B0C9456390C94AD
:10064000C8A60C94E9340C9409380C94DF310C944E
:10065000DBD00C94D0380C944D2F0C948C3D0C9422
:1006600020380C9451370C943A370C94DDCD0C940F
:10067000A9320C94E5350C9444420C940BA10C94D3
:1006800091350C9468370C94F1320C94EF8C0C94E7
:100690009A2F0C9478390C94FB8C0C9483300C9426
:1006A0008B310C9499330C944AA60C9423390C94F6
:1006B000B0360C942BA10C94E1330C94872E0C943F
:1006C00051360C94EA3C0C944E380C94F82D0C9452
:1006D000FE340C94018D0C94C4370C94922D0C9420
:1006E000E9310C94C7360C94A6350C943F3E0C941B
:1006F000D9320C94482F0C9405A10C94663A0C94B2
:10070000E4CF0C9487A60C94AB390C94078D0C9411
:10071000BB350C9489340C9413350C9496370C9497
:1007200079320C9435300C9471340C94A1340C94BF
:100730003C3E4E414E494E495459494E46CDCCCC93
:100740003D0AD7233C17B7D13877CC2B329595E6A5
:10075000241FB14F0A000020410000C84200401C85
:100760004620BCBE4CCA1B0E5AAEC59D7400407AD2
:1007700010F35A00A0724E18090010A5D4E800002A
:10078000E87648170000E40B54020000CA9A3B00C8
:100790000000E1F505000080969800000040420F3F
:1007A000000000A08601000000102700000000E803
:1007B00003000000006400000000000A00000000C8
:1007C000000100000000002C76D888DC674F082369
:1007D000DFC1DFAE59E1B1B796E5E3E453C63AE6CF
:1007E00051997696E8E6C28426EB898C9B62ED40AF
:1007F0007C6FFCEFBC9C9F40F2BAA56FA5F49005FE
:100800005A2AF75C936B6CF9676DC11BFCE0E40D31
:1008100047FEF520E6B500D0ED902E030094357725
:10082000050080841E080000204E0A000000C80C4D
:10083000333333330F986E12831141EF8D211489B6
:100840003BE65516CFFEE6DB18D1844B381BF77C10
:100850001D901DA4BBE424203284725E228100C955
:10086000F124ECA1E53D27434F4D4D554E49434101
:1008700054494F4E0044525952554E004552524F22
:10088000525300494E464F004543484F0047322FD0
:1008900047332062616420706172616D65746572B6
:1008A000730A00206F6620004D424C2047323920E9
:1008B000706F696E74200059206F7574206F662008
:1008C00072616E67652028312D35292E0A00582067
:1008D0006F7574206F662072616E67652028312DF8
:1008E00035292E0A004D6573682070726F62696E3B
:1008F0006720646F6E652E0A005374617274206DF8
:100900006573682070726F62696E672077697468BA
:100910002022473239205331222066697273742EA7
:100920000A004732380A4732392053320053746183
:1009300074653A20004D65736820626564206C65BB
:1009400076656C696E6720686173206E6F206461E4
:1009500074612E0A0053206F7574206F66207261D7
:100960006E67652028302D35292E0A004D65736885
:1009700020706F696E742063616E6E6F74206265A3
:10098000207265736F6C7665640A00456E6420663C
:10099000696C65206C6973740A00426567696E2032
:1009A00066696C65206C6973740A004D32303033AF
:1009B00000286E6F2066696C6529005344207072B0
:1009C000696E74696E67206279746520004E6F7479
:1009D000205344207072696E74696E670A00437513
:1009E0007272656E742066696C653A200050726997
:1009F0006E742074696D653A20006F6E2E0A006F68
:100A000066662E0A0047323620446562756720000C
:100A1000880883087C08750867086F666600444587
:100A20004255473A004D3131332053006F6B002C53
:100A300020002C2000544845524D414C5F50524FED
:100A400054454354494F4E004155544F5245504F21
:100A500052545F53445F53544154555300454D45E0
:100A60005247454E43595F5041525345520043410E
:100A700053455F4C494748545F4252494748544E9A
:100A800045535300544F47474C455F4C49474854E2
:100A90005300534F4654574152455F504F574552AC
:100AA000004255494C445F50455243454E54004C1A
:100AB0004556454C494E475F44415441005A5F50AA
:100AC000524F4245004155544F4C4556454C0050FD
:100AD00052494E545F4A4F420050524F475245537D
:100AE00053004155544F5245504F52545F54454D59
:100AF0005000564F4C554D455452494300454550C2
:100B0000524F4D0053455249414C5F584F4E5F582C
:100B10004F4646004649524D574152455F4E414D62
:100B2000453A4D61726C696E20312E312E39202884
:100B30004769746875622920534F555243455F4396
:100B40004F44455F55524C3A68747470733A2F2F76
:100B50006769746875622E636F6D2F4D61726C6981
:100B60006E4669726D776172652F4D61726C696E48
:100B70002050524F544F434F4C5F56455253494FAC
:100B80004E3A312E30204D414348494E455F54592D
:100B900050453A3344205072696E7465722045584E
:100BA0005452554445525F434F554E543A322055A6
:100BB0005549443A63656465326132662D3431616A
:100BC000322D343734382D396231322D6335356367
:100BD00036326633363766660A002F2F20002054DF
:100BE00000205200416363656C65726174696F6EC9
:100BF0003A2050005741524E494E4721204C6F77C2
:100C0000205A204A65726B206D6179206C656164A1
:100C100020746F20756E77616E74656420706175E5
:100C20007365732E0A00546F6F20666172206672BE
:100C30006F6D207265666572656E636520706F69A1
:100C40006E740A00205A00205900580020204D617F
:100C5000783A2000205A00205900580020204D6981
:100C60006E3A20004F6E20004F666600536F667428
:100C700020656E6473746F70733A200020466C6F49
:100C8000773A2000000136372603FFFFFF353C3D51
:100C9000380EFFFFFF312E303E23FFFFFFFF28FFFE
:100CA0000C0809FFFFFF1A1C18FFFF2AFFFFFFFFB8
:100CB000FFFF08440AFF4320643A0020693A0020FD
:100CC000703A00496E76616C69642065787472755B
:100CD0006465720A0043290A0061626C6564202819
:100CE0006D696E2074656D702000436F6C642065C3
:100CF0007874727564657320617265200020643AAF
:100D00000020693A0020703A0043617365206C69E5
:100D10006768743A200043617365206C6967687482
:100D20003A206F66660A004D65736820706F696EC1
:100D3000742063616E6E6F74206265207265736FDC
:100D40006C7665640A004D34323120696E636F72CF
:100D50007265637420706172616D6574657220756F
:100D6000736167650A00454550524F4D204F4B0A4D
:100D700000416374697665204578747275646572A4
:100D80003A20004530206163746976617465640AB5
:100D90000052656C61792053746174653A2000617A
:100DA000736B20666F7220453A20004D313036203B
:100DB00050256920532569004D313039205325696C
:100DC000004D3139302053256900256C75683A256E
:100DD0006C756D004731205A3130004731205A3050
:100DE00000473120583131302059313130204633DD
:100DF000303030004731205A313000473238004718
:100E000031205A30004731205833302059313930A1
:100E1000204633303030004731205A3130004732DD
:100E200038004731205A30004731205831393020BE
:100E300059313930204633303030004731205A3173
:100E40003000473238004731205A300047312058AF
:100E5000313930205933302046333030300047317B
:100E6000205A313000473238004731205A3000478D
:100E70003120583330205933302046333030300061
:100E80004731205A313000473238004D3230303649
:100E9000004D32303035004D313039205325690056
:100EA0004D32303035004D32303034004D31303934
:100EB00020532569004D32303034004D323030310E
:100EC000005431005430004D3231004D3530300087
:100ED0004D323035204535004D323035205A302ED8
:100EE00033004D32303520593130004D323035200D
:100EF000583130004D323034205431303030004DD4
:100F0000323034205233303030004D3230342050C3
:100F100031303030004D3230312045333030300008
:100F20004D323031205A313030004D32303120597D
:100F300031303030004D32303120583130303000D7
:100F40004D32303320453235004D323033205A3562
:100F5000004D3230332059333030004D32303320A1
:100F600058333030004D3932204539322E35393939
:100F7000004D3932205A343030004D393220593842
:100F800030004D393220583830004D33353520533C
:100F900030004D3335352053323535004732382057
:100FA0005A300047323820583020593000696E20BE
:100FB0006D6F76655F746F282920666565645F765E
:100FC000616C756520666F722058593A002C206557
:100FD000793D0029202D3E202865783D002C207386
:100FE000793D0020436F6E6E656374696E6720778C
:100FF00069746820766572746963616C206C696ECF
:1010000065202873783D002C2065793D0029202D2E
:101010003E202865783D002C2073793D0020436FE9
:101020006E6E656374696E67207769746820686F97
:1010300072697A6F6E74616C206C696E65202873BA
:10104000783D003F53706563696669656420582C7C
:101050005920636F6F7264696E617465206F757477
:10106000206F6620626F756E64732E0A003F2852EF
:101070002965706561742076616C7565206E6F748A
:1010800020706C61757369626C653B206D7573745B
:10109000206265206174206C6561737420312E0AB2
:1010A000003F2852296570656174206D7573742046
:1010B0006265207370656369666965642077686539
:1010C0006E206E6F74207573696E6720616E204CA0
:1010D00043442E0A003F5370656369666965642066
:1010E0006E6F7A7A6C652074656D70657261747567
:1010F0007265206E6F7420706C61757369626C65C7
:101100002E0A003F537065636966696564206669ED
:101110006C616D656E742073697A65206E6F7420E2
:10112000706C61757369626C652E0A003F5370655F
:10113000636966696564207072696D65206C656EAF
:10114000677468206E6F7420706C61757369626C6F
:10115000652E0A003F5072696D65206C656E67747C
:1011600068206D75737420626520737065636966AD
:10117000696564207768656E206E6F742075736989
:101180006E6720616E204C43442E0A003F53706509
:10119000636966696564206E6F7A7A6C652073692D
:1011A0007A65206E6F7420706C61757369626C650E
:1011B0002E0A003F53706563696669656420526555
:1011C0007472616374696F6E204D756C7469706CB4
:1011D000696572206E6F7420706C61757369626CE2
:1011E000652E0A003F52657472616374696F6E20E8
:1011F0004D756C7469706C696572206D75737420BF
:101200006265207370656369666965642E0A003FD4
:10121000537065636966696564206C6179657220E5
:10122000686569676874206E6F7420706C6175738F
:1012300069626C652E0A003F537065636966696573
:1012400064206265642074656D7065726174757286
:1012500065206E6F7420706C61757369626C6520B7
:101260002834302D31343043292E0A0047323620BD
:10127000636F6D6D616E6420737461727465642E4A
:101280002057616974696E6720666F7220686561B6
:101290007465722873292E0A002569730025696D0B
:1012A00020256973002569682025696D20256973EB
:1012B00000256964202569682025696D20256973EA
:1012C0000025697920256964202569682025696DD4
:1012D0002025697300656E7175657565696E672097
:1012E000220020496E76616C69642065787472759D
:1012F0006465722000000000000000000000000093
:101300000000005C4300005C4300007A43486F6DBE
:10131000696E67206661696C656400206E6F742079
:10132000656E74657265642E0A0050726F74656331
:101330007465642050696E0A0046696C616D656E63
:101340007420757365643A200053746174733A2095
:10135000002C204C6F6E67657374206A6F623A20B0
:1013600000546F74616C2074696D653A2000537489
:101370006174733A20002C204661696C65643A20E0
:10138000002C2046696E69736865643A20005072CB
:10139000696E74733A200053746174733A200020AC
:1013A000573A0020746F6F206C6F6E6720657874F9
:1013B000727573696F6E2070726576656E746564A0
:1013C0000A0020636F6C6420657874727573696FAE
:1013D0006E2070726576656E7465640A0020205018
:1013E0006C616E6E6572427566666572427974658F
:1013F000733A20002046726565204D656D6F7279E5
:101400003A2000436F6D70696C65643A204F6374D5
:1014100020323320323032300A00207C2041757473
:10142000686F723A20286E6F6E652C206465666165
:10143000756C7420636F6E666967290A00323031FB
:10144000382D30382D303100204C617374205570A8
:1014500064617465643A2000312E312E390A004DE2
:1014600061726C696E0020536F66747761726520DB
:1014700052657365740A00205761746368646F670E
:101480002052657365740A002042726F776E206F78
:1014900075742052657365740A002045787465720E
:1014A0006E616C2052657365740A00506F776572C7
:1014B00055700A0073746172740A004D3230303016
:1014C00000473238205830004731205A3130004729
:1014D0003931004D3234004D3233202573006175AF
:1014E000746F25692E67006572726F72207772695A
:1014F00074696E6720746F2066696C650A00205AF3
:101500003A0020593A0020583A00656E6473746FAF
:101510007073206869743A2000446F6E65207361AF
:1015200076696E672066696C652E0A004D32390057
:10153000454550524F4D206461746173697A65204E
:101540006572726F722E0A00290A00206279746532
:10155000733B20637263200053657474696E677314
:101560002053746F726564202800290A0020627974
:101570007465733B2063726320002073746F72651F
:10158000642073657474696E677320726574726920
:1015900065766564202800202863616C63756C6142
:1015A00074656429210A0020213D200045455052E0
:1015B0004F4D20435243206D69736D617463682001
:1015C0002D202873746F7265642920002053697A76
:1015D000653A2000496E6465783A2000204D6172BA
:1015E0006C696E3D563535290A0028454550524FE5
:1015F0004D3D00454550524F4D2076657273696FE1
:101600006E206D69736D61746368200020573A0025
:10161000205A3A0020593A0020436F756E742058C2
:101620003A0020453A00205A3A0020593A00583AE8
:10163000003A004361703A004B6420002364656601
:10164000696E652044454641554C545F004B692006
:101650000023646566696E652044454641554C54D7
:101660005F004B70200023646566696E6520444509
:101670004641554C545F00504944204175746F7485
:10168000756E652066696E697368656421205075A2
:101690007420746865206C617374204B702C204B2F
:1016A0006920616E64204B6420636F6E7374616E99
:1016B00074732066726F6D2062656C6F7720696E3F
:1016C000746F20436F6E66696775726174696F6EBF
:1016D0002E680A00504944204175746F74756E6518
:1016E000206661696C6564212074696D656F75742D
:1016F0000A00453120544845524D414C2052554E28
:10170000415741590042454420544845524D414CAF
:101710002052554E4157415900546865726D616CB5
:101720002052756E6177617900453120486561749A
:10173000696E67206661696C656400426564206853
:10174000656174696E67206661696C6564004865EF
:101750006174696E67206661696C65640050494414
:10176000204175746F74756E65206661696C65647F
:10177000212054656D706572617475726520746F97
:101780006F20686967680A00204B643A2000204B8C
:10179000693A2000204B703A20000A20436C6173A4
:1017A00073696320504944200A002054753A200090
:1017B000204B753A2000206D61783A2000206D6939
:1017C0006E3A200020643A200020626961733A205A
:1017D00000504944204175746F74756E65206661D0
:1017E000696C656421204261642065787472756457
:1017F0006572206E756D6265720A00504944204121
:1018000075746F74756E652073746172740A004F1D
:1018100066660A00466164652048656967687420E9
:1018200000426564204C6576656C696E67200046F1
:1018300061696C656420746F20656E61626C6520FF
:10184000426564204C6576656C696E670A004D657B
:10185000736820426564204C6576656C2064617411
:10186000613A0A00496E76616C6964206578747229
:10187000756465720A006265640A002C20737973CE
:1018800074656D2073746F707065642120486561A4
:101890007465725F49443A2000426564206865615E
:1018A00074696E67206661696C656400486561747F
:1018B000696E67206661696C656400453120486522
:1018C0006174696E67206661696C65640048656172
:1018D00074696E67206661696C6564004B494C4CA5
:1018E00045442E200070012C0190012701B00122F7
:1018F00001C0011D01F00118011002130130020E98
:10190000016002090190020401C002FF000003FA15
:10191000004003F5008003F000D003EB002004E654
:10192000007004E100E004DC004005D700C005D2EF
:10193000004006CD00D006C8008007C3003008BEB6
:1019400000F008B900C009B400B00AAF00B00BAA9B
:1019500000D00CA500000EA000500F9B00C01096F8
:10196000005012910000148C00C0158700B017823F
:1019700000B0197D00D01B7800001E730040206E5F
:101980000090226900F024640040275F0090295AEB
:1019900000E02B5500102E500020304B0010324636
:1019A00000E033410090353C00103737007038328A
:1019B00000A0392D00B03A2800A03B2300603C1E57
:1019C00000103D1900903D1400103E0F00703E0ABB
:1019D00000C03E0500003F0000403FFBFF803FF697
:1019E000FFC03FF1FF453120544845524D414C2046
:1019F00052554E41574159004245442054484552A2
:101A00004D414C2052554E41574159005468657222
:101A10006D616C2052756E617761790045312045AA
:101A200072723A204D415854454D50004572723AF9
:101A3000204D415854454D5020424544004D415899
:101A400054454D502074726967676572656400453E
:101A500031204572723A204D494E54454D50004553
:101A600072723A204D494E54454D50204245440033
:101A70004D494E54454D50207472696767657265D3
:101A800064004D383420582059205A204500202F1A
:101A9000002042403A0020403A00627573793A20B3
:101AA00070617573656420666F7220696E707574FD
:101AB0000A00627573793A207061757365642066F7
:101AC0006F7220757365720A00627573793A2070BF
:101AD000726F63657373696E670A004B494C4C45BE
:101AE000442E20004B494C4C206361757365642083
:101AF000627920746F6F206D75636820696E616311
:101B0000746976652074696D65202D206375727225
:101B1000656E7420636F6D6D616E643A20004D32A6
:101B200035005072696E7465722068616C7465640A
:101B30002E206B696C6C28292063616C6C656421B4
:101B40000A0000000000000000000000000000008B
:101B500048420000484200008040000000005761F9
:101B6000726E696E673A20486F6D696E67204275C4
:101B70006D702044697669736F72203C20310A00D1
:101B80000202040000A0400000A04000000040004D
:101B9000005C4300005C4300007A43FFFFFF4D33CD
:101BA000310053442072656164206572726F720A5D
:101BB00000446F6E65207072696E74696E6720668E
:101BC000696C650A005072696E7465722073746F77
:101BD000707065642064756520746F206572726F23
:101BE00072732E2046697820746865206572726F62
:101BF0007220616E6420757365204D393939207407
:101C00006F20726573746172742E202854656D7034
:101C1000657261747572652069732072657365748D
:101C20002E20536574206974206166746572207279
:101C3000657374617274696E67290A004E6F204380
:101C40006865636B73756D2077697468206C696E65
:101C500065206E756D6265722C204C617374204C2A
:101C6000696E653A20004E6F20436865636B73753B
:101C70006D2077697468206C696E65206E756D6281
:101C800065722C204C617374204C696E653A20009B
:101C9000636865636B73756D206D69736D617463E3
:101CA000682C204C617374204C696E653A20004C9E
:101CB000696E65204E756D626572206973206E6F66
:101CC00074204C617374204C696E65204E756D6292
:101CD00065722B312C204C617374204C696E653A0F
:101CE00020004D3131300024F4D43050C38E20C256
:101CF000A24017828B7011127A910D816CD90AA8BB
:101D000061E108C7586607615143061E4B5D05C176
:101D100045A7041A411104093D9803713931034064
:101D200036DB0265339102D4305402802E1D0263EB
:101D30002CEE01752AC501B028A001102781018F62
:101D40002564012B244B01E0223401AC211F018DBD
:101D5000200D01801FFC00841EED00971DDF00B8E0
:101D60001CD200E61BC600201BBC00641AB200B2E5
:101D700019A8000A19A0006A189900D1179100400B
:101D8000178B00B516840031167E00B31579003A22
:101D9000157300C7146F0058146A00EE13660088AC
:101DA00013630025135E00C7125B006C1257001509
:101DB000125400C111510070114F0021114B00D677
:101DC0001049008D1047004610440002104200C028
:101DD0000F4000800F3E00420F3C00060F3B00CB3F
:101DE0000E3800930E37005C0E3500270E3400F3DA
:101DF0000D3200C10D3100900D3000600D2E00320B
:101E00000D2D00050D2C00D90C2B00AE0C290085E2
:101E10000C29005C0C2700350C27000E0C2600E86E
:101E20000B2400C40B2400A00B23007D0B23005ABD
:101E30000B2100390B2100180B2000F80A1F00D9D4
:101E40000A1E00BB0A1E009D0A1D00800A1D0063B9
:101E50000A1C00470A1B002C0A1B00110A1A00F773
:101E6000091A00DD091900C4091900AB091900920B
:101E70000917007B091800630917004C0916003682
:101E8000091600200916000A091500F5081500E0DA
:101E9000081400CC081400B8081400A4081400901A
:101EA0000813007D0812006B081300580812004642
:101EB0000812003408110023081100120811000153
:101EC000081100F0071000E0071000D0071000C054
:101ED000071000B0070F00A107100091070E008344
:101EE000070F0074070F0065070E0057070E004923
:101EF000070E003B070D002E070E0020070D0013F4
:101F0000070D0006070D00F9060C00ED060D00E0B8
:101F1000060C00D4060C00C8060C00BC060C00B071
:101F2000060C00A4060B0099060C008D060B00821F
:101F3000060B0077060B006C060B0061060A0057C3
:101F4000060B004C060A0042060A0038060A002E5C
:101F5000060A0024060A001A060A001006090007ED
:101F6000060A00FD050900F4050900EB050900E279
:101F7000050900D9050900D0050900C7050900BEFB
:101F8000050900B5050800AD050800A50509009C78
:101F9000050800940508008C050800840508007CED
:101FA000050800740508006C050700650508005D5C
:101FB000050700560508004E0507004705070040C5
:101FC00005080038050700310507002A050700232A
:101FD0000507001C050600160507000F0507000889
:101FE00005060002050700FB040600F5040700EEE5
:101FF000040600E8040600E2040700DB040600D53E
:10200000040600CF040600C9040600C3040600BD90
:10201000040600B7040600B1040500AC040600A6DF
:10202000040600A00405009B04060095040500902A
:102030000406008A04050085040500800406007A71
:1020400004050075040500700405006B04050066B6
:10205000040500610405005C0405005704050052F6
:102060000405004D04050048040500430405003E36
:102070000404003A04050035040500300404002C73
:1020800004050027040400230405001E0404001AAC
:1020900004040016040500110404000D04040009E2
:1020A0000405000404040000040400FC030400F818
:1020B000030400F4030400F0030400EC030400E84C
:1020C000030400E4030400E0030400DC030400D87C
:1020D000030400D4030400D0030400CC030400C8AC
:1020E000030300C503030024F404D9201BC40C5CC3
:1020F0000E9804C4095F0265077101F405F900FB3D
:1021000004B30048048700C1036900580355000365
:10211000034500BE023A008402310053022A00291E
:1021200002250004022000E4011C00C8011900AFD0
:10213000011700980114008401130071011000615F
:1021400001100051010E0043010D0036010B002B60
:10215000010B0020010B00150109000C010900030F
:10216000010800FB000800F3000800EB000700E492
:10217000000600DE000600D8000600D2000600CCF3
:10218000000500C7000500C2000500BD000400B93D
:10219000000400B5000400B1000400AD000400A973
:1021A000000400A5000300A20003009F0004009BA0
:1021B00000030098000300950002009300030090C4
:1021C0000003008D0002008B0003008800020086DF
:1021D00000020084000300810002007F0002007DF5
:1021E0000002007B00020079000200770001007607
:1021F0000002007400020072000100710002006F12
:102200000002006D0001006C0002006A000100691C
:102210000002006700010066000100650001006423
:102220000002006200010061000100600001005F27
:102230000002005D0001005C0001005B0001005A2B
:10224000000100590001005800010057000100562C
:10225000000100550001005400010053000000532C
:102260000001005200010051000100500001004F28
:102270000001004E0000004E0001004D0001004C26
:102280000001004B0000004B0001004A0001004922
:10229000000100480000004800010047000100461E
:1022A0000000004600010045000000450001004418
:1022B0000001004300000043000100420000004212
:1022C0000001004100000041000100400001003F0A
:1022D0000000003F0001003E0000003E0001003D04
:1022E0000000003D0001003C0000003C0000003CFC
:1022F0000001003B0000003B0001003A0000003AF2
:1023000000010039000000390001003800000038E9
:1023100000000038000100370000003700010036DF
:1023200000000036000000360001003500000035D6
:1023300000000035000100340000003400000034CB
:1023400000010033000000330000003300010032C0
:1023500000000032000000320001003100000031B6
:1023600000000031000100300000003000000030AB
:102370000001002F0000002F0000002F0000002FA0
:102380000001002E0000002E0000002E0001002D94
:102390000000002D0000002D0000002D0001002C89
:1023A0000000002C0000002C0000002C0001002B7D
:1023B0000000002B0000002B0000002B0001002A71
:1023C0000000002A0000002A0000002A0001002965
:1023D0000000002900000029000000290000002959
:1023E000000100280000002800000028000000284C
:1023F000000000280001002700000027000000273F
:102400000000002700000027000100260000002631
:102410000000002600000026000000260001002524
:102420000000002500000025000000250000002518
:10243000000000250001002400000024000000240A
:1024400000000024000000240001002300000023FD
:1024500000000023000000230000002300000023F0
:1024600000000023000100220000002200000022E2
:1024700000000022000000220000002200010021D4
:1024800000000021000000210000002100000021C8
:1024900000000021000000210001002000000020B9
:1024A00000000020000000200000002000000020AC
:1024B00000000020000000200001001F0000001F9D
:1024C0000000001F0000001F0000001F0000001F90
:1024D0000000001F0001001E0000001E0000001E82
:1024E0000000001E000000043700001E29000051FB
:1024F0001B00005810000010090000CC04000078F8
:10250000020000410100007C3C3E5E2B3D3F2F5B02
:102510005D3B2C2A225C0000002100240027002AB9
:10252000002D003000330001010000040107010A02
:102530000100002200250028002B002E003100346D
:102540000002010000050108010B0100002000232A
:1025500000260029002C002F00320000010000039B
:102560000106010901050505050705080808080217
:102570000202020A0A08080404040401010101011C
:102580000101010303030303030303040707070C0B
:102590000C0C0C0C0C0C0C020202020606060606C1
:1025A0000606060B0B0B0B0B0B0B0B01021020206E
:1025B0000808102040102040800201020108040297
:1025C000010102040810204080804020100804020D
:1025D0000180040201804020100804020108040266
:1025E000010102040810204080010204081020406C
:1025F0008000000A0B02090C0D0E080703040100FD
:1026000000000000000000000000000000000000CA
:102610000000000000000000000000000012111087
:1026200000000000000000000000000000000000AA
:1026300000000000000000556E6B6E6F776E206327
:102640006F6D6D616E643A2022002066697273744A
:102650000A005A0059005800486F6D652000436118
:102660006E6E6F74206F70656E2073756264697230
:1026700020006563686F3A0046696C652064656C8C
:10268000657465643A0044656C6574696F6E2066B4
:1026900061696C65642C2046696C653A20006F7036
:1026A000656E206661696C65642C2046696C653ACC
:1026B0002000526573656E643A20006F6B002074D1
:1026C0006F6F206C6F6E6720657874727573696FB9
:1026D0006E2070726576656E7465640A0020636FA3
:1026E0006C6420657874727573696F6E20707265A2
:1026F00076656E7465640A0048617264636F646530
:10270000642044656661756C742053657474696EE9
:102710006773204C6F616465640A00E8030000E899
:1027200003000064000000B80B0000B80B000000BC
:10273000009643000096430000A0400000C84100FE
:1027400000A0420000A0420000C8430000BE4200BA
:102750004045442028696E290020286D6D290020FD
:10276000440020490020204D3330342050002044C4
:102770000020490020204D33303120500050494482
:102780002073657474696E67733A0A00205A0020DA
:1027900059002020473239205333205800205A0056
:1027A00020204D3432302053004D6573682042653F
:1027B00064204C6576656C696E673A0A00205A00A1
:1027C00020590020204D323036205800486F6D656A
:1027D000206F66667365743A0A00204500205A002F
:1027E00020590020580020540020530020204D3252
:1027F000303520510020453C6D61785F655F6A652A
:10280000726B3E0020583C6D61785F785F6A65723C
:102810006B3E20593C6D61785F795F6A65726B3EF3
:10282000205A3C6D61785F7A5F6A65726B3E004149
:102830006476616E6365643A20513C6D696E5F73C6
:1028400065676D656E745F74696D655F75733E2055
:10285000533C6D696E5F66656564726174653E20A8
:10286000543C6D696E5F74726176656C5F66656518
:1028700064726174653E0020540020520020204D97
:10288000323034205000416363656C657261746955
:102890006F6E2028756E6974732F7332293A205039
:1028A0003C7072696E745F616363656C3E20523C7C
:1028B000726574726163745F616363656C3E20541A
:1028C0003C74726176656C5F616363656C3E0A009F
:1028D00020450020204D323031205400205A002065
:1028E000590020204D3230312058004D6178696DFB
:1028F000756D20416363656C65726174696F6E20EC
:1029000028756E6974732F7332293A0A00204500C6
:1029100020204D323033205400205A00205900200E
:10292000204D3230332058004D6178696D756D202F
:102930006665656472617465732028756E69747369
:102940002F73293A0A0020450020204D39322054A7
:1029500000205A0020590020204D393220580053C1
:10296000746570732070657220756E69743A0A0020
:1029700020204D3230302044300A0020204D3230AB
:102980003020543120440020204D3230302044008B
:102990002044697361626C65640A0046696C616D0C
:1029A000656E742073657474696E67733A00203BBA
:1029B000002020473200506F7765722D6C6F737363
:1029C0002066696C65207772697465206661696C40
:1029D00065642E0A006F70656E206661696C6564BF
:1029E0002C2046696C653A200057726974696E67DD
:1029F00020746F2066696C653A200053442063613F
:102A00007264206F6B0A006F70656E526F6F742076
:102A10006661696C65640A00766F6C756D652E6918
:102A20006E6974206661696C65640A0053442069AC
:102A30006E6974206661696C0A0057726974696E08
:102A40006720746F2066696C653A20006F70656E50
:102A5000206661696C65642C2046696C653A2000CB
:102A60006F70656E206661696C65642C2046696CC8
:102A7000653A200046696C652073656C6563746512
:102A8000640A002053697A653A200046696C652023
:102A90006F70656E65643A20002066696C653A2047
:102AA00000646F696E67006672657368004E6F77C9
:102AB0002000454E4420535542524F5554494E45EF
:102AC0000A002220706F73002220706172656E749C
:102AD0003A2200535542524F5554494E45204341E6
:102AE0004C4C207461726765743A22004B494C4C1F
:102AF00045442E2000747279696E6720746F2063DC
:102B0000616C6C207375622D67636F646520666904
:102B10006C6573207769746820746F6F206D616EC7
:102B200079206C6576656C732E204D4158206C655C
:102B300076656C2069733A004572726F723A00458F
:102B400072726F722077726974696E6720746F2079
:102B5000454550524F4D210A00545249474745526E
:102B60004544006F70656E003A200066696C616DC7
:102B7000656E74007A5F6D696E00795F6D696E00D5
:102B8000785F6D696E005265706F7274696E672050
:102B9000656E6473746F70207374617475730A006A
:102BA0000A4D6561737572656420706F696E747328
:102BB0003A0A005A206F66667365743A20004E75B3
:102BC0006D20582C593A20352C350A0025753A25A8
:102BD00030327500253032753A25303275006F700D
:102BE000656E206661696C65642C2046696C653A87
:102BF00020004D32342053256C64004D32332025A3
:102C00007300473238205230205830205930004766
:102C10003932205A2573204525730000C8DEA3DE13
:102C200011241FBECFEFD1E2DEBFCDBF00E00CBF4D
:102C300014E0A0E0B2E0E0E9F2EE01E00BBF02C078
:102C400007900D92A43DB107D9F72DE1A4EDB4E0B2
:102C500001C01D92A631B207E1F716E1CFE0D6E13F
:102C600000E006C021970109802FFE010E9443EC7D
:102C7000CE30D10780E00807A9F70E94D0D70C9486
:102C800036F10C9400002F923F924F925F926F9218
:102C90007F928F929F92AF92BF92CF92DF92EF92EC
:102CA000FF920F931F93CF93DF93CDB7DEB7EF97CC
:102CB0000FB6F894DEBF0FBECDBF21E02093AE0863
:102CC0008091CE148D3409F439C5843511F40C94F7
:102CD000C32A873411F00C941C2B8091CC14909152
:102CE000CD148531910509F407C2B4F484309105FF
:102CF00034F482309105DCF597FF32C01BC5843077
:102D0000910509F4C4C1449709F014C581E090E02D
:102D10000E9472570C941E2B8A32910509F4F1C35C
:102D20007CF48C31910509F4EDC18D31910509F4E4
:102D3000EEC14A9709F0FEC40E9486450C941E2BF2
:102D40008B35910509F468C48C35910509F468C484
:102D50008A35910509F0EEC41092E6040C941E2BFE
:102D600080911B0281110C94232B0C941E2B20911B
:102D70001B02222311F40C941E2B11E0029709F080
:102D800010E00E94AF5619821A821B821C821D829B
:102D90001E821F82188682E50E942844882309F437
:102DA00026C10E94D2434B015C0120E030E0A90122
:102DB0000E940FE5882309F430C1409164185091B6
:102DC000651860916618709167184CA35DA36EA397
:102DD0007FA3609168187091691880916A1890912A
:102DE0006B1868A779A78AA79BA780915418909120
:102DF0005518A0915618B09157188CA79DA7AEA74B
:102E0000BFA7409158185091591860915A18709165
:102E10005B1848AB59AB6AAB7BAB9C01AD016CA1B5
:102E20007DA18EA19FA10E940FE581110DC028A94F
:102E300039A94AA95BA968A579A58AA59BA50E947D
:102E40000FE5882309F4E9C020E030E0A901C501BD
:102E5000B4010E940FE5881F8827881F181749F0C2
:102E600060E070E080E89FEB68AF79AF8AAF9BAF1E
:102E700008C080E090E0A0E8BFE388AF99AFAAAFB8
:102E8000BBAF2CA13DA14EA15FA16CA57DA58EA5D8
:102E90009FA50E9457EC6CAB7DAB8EAB9FAB28A57A
:102EA00039A54AA55BA568A979A98AA99BA90E9409
:102EB00057EC6B017C012CA93DA94EA95FA9CA0161
:102EC000B9010E9475E52B013C01A7019601C701DC
:102ED000B6010E9475E59B01AC01C301B2010E94DD
:102EE00058EC0E9456EF2B013C0120E030E040E01E
:102EF0005FE30E9475E56CAF7DAF8EAF9FAFA5011C
:102F00009401C501B4010E9475E54B015C012CAD33
:102F10003DAD4EAD5FADCA01B9010E9475E59B01A3
:102F2000AC01C501B4010E9457EC0E9456EF28ADD8
:102F300039AD4AAD5BAD0E9475E54B015C01C7013F
:102F4000B6019058A30192010E9452EDA50194018F
:102F50000E9475E56B017C012CA53DA54EA55FA5E2
:102F60006CA17DA18EA19FA10E9458EC20E030E0D1
:102F700040E05FE30E9475E59B01AC01C701B6012B
:102F80000E9458EC2CA13DA14EA15FA10E9457ECDC
:102F900069837A838B839C8328A939A94AA95BA971
:102FA00068A579A58AA59BA50E9458EC20E030E091
:102FB00040E05FE30E9475E56B017C01A301920193
:102FC0006CA97DA98EA99FA90E9452EDA50194012B
:102FD0000E9475E59B01AC01C701B6010E9458EC47
:102FE00028A539A54AA55BA50E9457EC12C089E423
:102FF0000E942844882331F00E94D24369837A8357
:103000008B839C838AE40E942844882331F00E94A9
:10301000D2436D837E838F83988720E030E0A901BF
:1030200069817A818B819C810E940FE581110EC09C
:1030300020E030E0A9016D817E818F8198850E941A
:103040000FE5811103C0E8E3FBE20DC0412FBE0193
:103050006F5F7F4F84E598E10E945DAC0C941E2B5E
:103060000E94D640F80184918F010F5F1F4F81119C
:10307000F7CFEDE8F8E084918F010F5F1F4F8823B1
:1030800011F40C941E2B0E94D640F801F4CF80E579
:103090000E942844882329F00E949C576B017C01E0
:1030A00003C0C12CD12C760183E50E9428448823DB
:1030B00061F00E949B4320E030E04AE754E40E9424
:1030C00075E50E94CBED6B017C010E9496670E9422
:1030D000E2D5C60ED71EE81EF91E0E94E2D5DC011D
:1030E000CB018C199D09AE09BF09B7FD02C00C9434
:1030F0001E2B0E942F8DF1CF80E090E00E9472572E
:103100000C941E2B80E00E94E3530C941E2B83E54D
:103110000E942844882319F10E947743182F863093
:1031200068F0E5E5F9E084918F010F5F1F4F882378
:1031300009F4B5C10E94D640F801F5CF833009F4F7
:103140002CC130F4813091F1823009F43EC008C0C6
:10315000843009F474C1853009F481C101C010E0E4
:103160000E94C850811103C0E5E3F9E013C08091CB
:10317000840E882319F069E173E002C06DE173E009
:103180008DE299E00E9467988AE00E94D6400E94F2
:103190006BCC6BC184917F019FEFE91AF90A8823F8
:1031A00009F463C10E94D640F701F4CF0E941ECDFE
:1031B000109201021092000282E299E09093EB04D7
:1031C0008093EA040E9443536AC180910002909167
:1031D000010297FF0DC0E9EFF8E084918F010F5FC6
:1031E0001F4F882309F45BC10E94D640F801F5CF38
:1031F0000097A1F480913A028093E70419821A8221
:103200001B821C8218A219A21AA21BA2BE016F5F08
:103210007F4FCE0180960E942BA327C0815065E08E
:103220000E940DEC80FF03C024E0291B922FA5E033
:103230009A02F0011124E80FF11D87FDFA95EE0FB7
:10324000FF1FEE0FFF1FE357F84E80916C1890910F
:103250006D18A0916E18B0916F1880839183A2832E
:10326000B3838091E70480933A02809100029091A9
:103270000102893191050CF067C010923A029C015D
:103280002F5F3F4F309301022093000265E00E94C0
:103290000DEC80FF03C024E0291B922F40916C1895
:1032A00050916D1860916E1870916F1848A359A3D2
:1032B0006AA37BA319821A821B821C82B4E08B0250
:1032C00090011124F901E950FF4E4F012081318115
:1032D00042815381F4E09F02C0011124BC01655F6B
:1032E0007E4E5B01DB016D917D918D919C91FE0184
:1032F00031966F01E12CF12C00EA10E40E946D512F
:1033000019821A821B821C82B601CE0180960E940D
:103310002BA3F50180819181A281B38180936418F0
:1033200090936518A0936618B0936718F401808194
:103330009181A281B3818093681890936918A093BA
:103340006A18B0936B1893C080E090E0A0EAB0E4F4
:1033500080936C1890936D18A0936E18B0936F18AB
:103360000E9416510E9496678FEF9FEF9093010283
:1033700080930002E5EEF8E084918F010F5F1F4F0C
:10338000882321F00E94D640F801F6CF81E00E9408
:10339000E35381E00E94F5506AC088E50E9428440A
:1033A000882399F00E9467431FEF160F153078F0BD
:1033B000EEECF8E084918F010F5F1F4F882309F432
:1033C0006EC00E94D640F801F5CF88E533C089E58C
:1033D0000E942844882399F00E9467430FEF060F4C
:1033E000053078F0E7EBF8E084918F010F5F1F4F15
:1033F000882309F454C00E94D640F801F5CF89E52E
:1034000019C08AE50E942844882399F00E94D2437B
:1034100025E0129FF0011124E00FF11DEE0FFF1FB8
:10342000EE0FFF1FE357F84E60837183828393830F
:1034300034C08AE50E94D6400E94C0D730C08AE5D9
:103440000E9428448823A9F30E94D24360938917DD
:1034500070938A1780938B1790938C171EC080E00F
:103460000E94F5500E941ECD18C01230B1F4609138
:103470000002709101026931710514F069E170E098
:1034800088EA98E00E944E9869E170E083EA98E04B
:103490000E944E988AE00E94D6400E94EA7980916C
:1034A000E804813079F41092E804809101058111DB
:1034B0000C941E2B8BE790E00E9448A80E94A98CD8
:1034C0000C941E2B823011F00C941E2B8091010560
:1034D00081110AC01092E80481E890E00E9448A897
:1034E0000E94A98C0C941E2B82E990E00E9448A8AF
:1034F0001092020281E08093F6040E940AD10C949B
:103500001E2B80911B02882311F40C941E2B89E43E
:103510000E942844E82E882321F00E946743062F4A
:1035200001C000E08AE40E942844F82E882321F09C
:103530000E946743162F01C010E0EE2011F0053005
:1035400020F4FF2081F0153070F0ECE6F9E0849172
:103550008F010F5F1F4F882311F40C941E2B0E94C4
:10356000D640F801F4CF0E943544EE2091F044E0BB
:103570000402F0011124E55FFE4E80819181A28159
:10358000B3818093541890935518A0935618B09314
:103590005718FF2091F054E01502F0011124E95072
:1035A000FF4E80819181A281B381809358189093BE
:1035B0005918A0935A18B0935B1880E50E942844CC
:1035C000882319F00E948B4303C080E50E94DF43EB
:1035D00086E40E9428448823D9F00E94D2436B01DC
:1035E0007C0120E030E0A9010E94B8EE181684F4B6
:1035F00020E030E040E752E4C701B6010E9452EDFE
:1036000060933F0270934002809341029093420284
:103610000E9470B00C941E2B2093E6040C941E2B79
:1036200069E572E07DA36CA30CEBC02E08E0D02E00
:1036300084E6882E88E1982E96EDA92E94E0B92E86
:10364000612C10E0ACA1BDA18D91BDA3ACA30E94E3
:103650002844882309F456C0812F0E949056762E64
:10366000E72EF82E092F133059F0F5012081318112
:10367000428153810E9457EC762EE72EF82E092FB7
:10368000D4012D913D914D915C91672D7E2D8F2D13
:10369000902F0E9457EC1B012C012DEB37E346E8DD
:1036A00055EB0E94B8EE87FD0AC02DEB37E346E8E4
:1036B00055E3C201B1010E940FE518161CF5133045
:1036C00079F4872D9E2DAF2DB02F80937018909395
:1036D0007118A0937218B09373186624639412C083
:1036E000A2019101F60160817181828193810E9422
:1036F00058ECD6016D937D938D939C931397812FF6
:103700000E945F521F5FB4E0CB0ED11CE4E08E0E2E
:10371000911CF4E0AF0EB11C143009F093CF662079
:1037200029F060E778E183E00E9400D40E94EA7902
:103730000C941E2B0E946BA50C941E2B8091CC1414
:103740009091CD148637910509F452C70CF0C5C08D
:103750008C34910509F488C40CF058C08931910566
:1037600009F4EDC21CF58431910509F4D9C17CF44A
:103770008131910509F459C22CF4029708F4D3C1A0
:103780000C94C02A429709F4DEC50C94C02A8631F5
:10379000910509F490C20CF48AC28731910509F4AD
:1037A00090C2489709F4A5C20C94C02A8E319105A5
:1037B00009F483C384F48B31910509F4DCC20CF461
:1037C000CCC28C31910509F46EC34D9711F40C9461
:1037D0001E2B0C94C02A8A32910509F4ECC34CF4D8
:1037E0008F31910509F4C2C3809709F480C30C940A
:1037F000C02A8133910509F412C48B34910511F06C
:103800000C94C02A0E9482980C941E2B8A36910533
:1038100009F455C58CF58335910509F490C59CF4E0
:103820008E34910509F428C40CF422C48135910525
:1038300009F475C58235910511F00C94C02A1092D7
:10384000E5040C941E2B8C35910509F49BC554F4AA
:103850008435910509F477C58535910509F477C557
:103860000C94C02A8836910509F40AC4893691055A
:1038700009F4C9C40C94C02A8F36910509F443C4D5
:103880008CF48C36910511F40C941E2B0CF435C578
:103890008D36910509F4F9C48E36910509F420C4DA
:1038A0000C94C02A8237910509F408C65CF480376D
:1038B000910511F40C941E2B8137910509F476C4FF
:1038C0000C94C02A8337910509F427C185379105E7
:1038D00011F40C941E2B0C94C02A833621E092071D
:1038E00011F40C94BC280CF06BC08C3C910509F4CD
:1038F000A7C76CF58B39910509F4A0C484F4883707
:10390000910509F4C6C60CF4C0C68937910509F4BF
:10391000C7C68C38910509F4BCC40C94C02A883CF5
:10392000910509F4C3C64CF48E3B910511F00C943B
:10393000C02A0E94D87C0C941E2B893C910509F466
:1039400022C78B3C910509F450C70C94C02A8D3DC9
:10395000910511F40C94B1269CF48E3C910511F460
:103960000C94142514F40C949524833D910509F4CA
:10397000D0C08C3D910511F40C94A4260C94C02A5F
:103980008E3251E0950711F40C94E82764F4823EDE
:10399000910511F40C941F278D32914011F40C9471
:1039A00048270C94C02A8F32A1E09A0711F40C9496
:1039B0003C288033914011F40C943F280C94C02A89
:1039C0008B38E3E09E0711F40C941E2B0CF047C0DB
:1039D0008C3A21E0920711F40C943625ECF48A39E4
:1039E00051E0950711F40C941E2B4CF48039914052
:1039F00011F00C94C02A0E9496670C941E2B843AF6
:103A0000A1E09A0711F40C94FD28853A914011F435
:103A10000C9400290C94C02A863FE1E09E0711F423
:103A20000C94E4297CF4843F21E0920711F40C9477
:103A3000E129853F914011F00C94C02A0E94276F24
:103A40000C941E2B873F51E0950711F40C94E72945
:103A5000883F914011F40C94F3290C94C02A833DC3
:103A600077E0970711F40C94402A64F5873EB3E0A1
:103A70009B0711F40C94172A94F4803A934011F0A8
:103A80000C94C02A8091CA149091CB1421E0209309
:103A9000201140E060E00E947FC10C941E2B803D0D
:103AA00027E0920711F40C942A2A813D974011F0E7
:103AB0000C94C02A0E9407568EE290E00E9448A80B
:103AC0000C941E2B863D57E0950711F40C94482A60
:103AD0008CF4843D77E0970711F40C94432A853DDC
:103AE000974011F00C94C02A8CE09EEF0E94B2A384
:103AF0000C941E2B873DB7E09B0711F40C94552ABC
:103B0000883D974011F00C94C02A00EA1FE00C9405
:103B1000A62AE2E7F6E20C94D125E4E1FBE00CC52D
:103B2000EAE9F9E086C0A090CA14B090CB1480E511
:103B30000E942844882359F00E949C576B017C0105
:103B400011E0672B682B692B31F410E004C010E002
:103B5000C12CD12C760183E50E942844882311F4DE
:103B60000C94282B0E949B4320E030E04AE754E469
:103B70000E9475E50E94CBED6B017C0111110BC019
:103B8000672B682B692B39F4A114B10421F0D501FE
:103B90008C91811102C010E001C011E00E94966773
:103BA0001123B9F0E2E7F6E284918F010F5F1F4F16
:103BB000882321F00E94D640F801F6CFF5018191CB
:103BC0005F01882319F00E94D640F8CF8AE00E9456
:103BD000D64083E08093AE0881E08093D404C11482
:103BE000D104E104F104B1F00E94E2D5C60ED71E63
:103BF000E81EF91E0E94E2D5DC01CB018C199D095B
:103C0000AE09BF09B7FF0DC08091D40481110C9497
:103C10002D2B07C08091D404882319F00E942F8D8A
:103C2000F9CF1092D4040C941E2B0E9454AC0C9427
:103C30001E2B84918F010F5F1F4F882321F00E945C
:103C4000D640F801F6CF1092BD1381E591E10E94B4
:103C50009D9B8BE1E1E5F1E1DE01159601900D926E
:103C60008A95E1F780914F11909150119C838B833D
:103C700085E093E09A83898340E050E0BE016F5F66
:103C80007F4F80E090E00E94D6A9CE0101960E946D
:103C9000A18CEBE8F9E084918F010F5F1F4F88231F
:103CA00011F40C941E2B0E94D640F801F4CF0E9410
:103CB0003FBF0C941E2B10922111109222110C94D4
:103CC0001E2B0E9437ACE091CA14F091CB14808176
:103CD000882329F0803209F410823196F8CF40E031
:103CE00061E08091CA149091CB140E947FC10C9422
:103CF0001E2B83E50E942844882381F00E9467439D
:103D0000AB01BC014093B9135093BA136093BB133A
:103D10007093BC1389EE92E10E9455998091221113
:103D2000882319F081E08093211184E50E942844C2
:103D300081110C941E2B0E9482980C941E2B1092C1
:103D400021110E941F888BEA99E09093EB048093E5
:103D5000EA040E9443530C941E2B80912211882365
:103D600011F40C941E2B83E50E94284481110C94BD
:103D7000312B0C941E2B83E40E94DF43882309F42B
:103D800050C0EEEDF9E084918F010F5F1F4F882343
:103D900021F00E94D640F801F6CF8091EC128111FB
:103DA00003C0E1EBF9E012C0BE016F5F7F4F89EE07
:103DB00092E10E94649A8E010F5F1F4FD8018D918E
:103DC0008D01882349F10E94D640F8CF84918F015C
:103DD0000F5F1F4F882301F10E94D640F801F6CFF4
:103DE00010E1C12E1AE0D12EE12CF12C20E08091BF
:103DF0005E0690E00E2C02C0959587950A94E2F736
:103E000080FDB1C1EFEFEE1AFE0AF2E0CF0ED11C39
:103E100045E0E416F10459F78AE00E94D6400C947C
:103E20001E2B80912211882339F080912111882343
:103E300019F0EBEBF9E003C0EDECF9E028C0849158
:103E40008F010F5F1F4F882321F00E94D640F80199
:103E5000F6CF6091B9137091BA138091BB13909112
:103E6000BC134AE00E94DD408FE20E94D640609180
:103E7000B5137091B6138091B7139091B8134AE0BF
:103E80000E94DD408AE00E94D6400C941E2B849153
:103E90008F010F5F1F4F882311F40C941E2B0E947B
:103EA000D640F801F4CF40E060E08091CA149091D0
:103EB000CB140E947FC10C941E2B80912211882369
:103EC00011F40C941E2B89EE92E10E94C1C689EE7A
:103ED00092E10E943F9A1092201110921F1180913E
:103EE000CA149091CB140E949DAB0C941E2B809110
:103EF000211181110E94966780912211882311F46B
:103F00000C941E2B80E50E942844882319F00E94FF
:103F10008B4303C080E50E94DF43182F482F61E0E8
:103F20008091CA149091CB140E947FC183E50E94B6
:103F30002844882381F00E946743AB01BC01409371
:103F4000B9135093BA136093BB137093BC1389EEEB
:103F500092E10E94559980912211882319F081E005
:103F60008093211111110C941E2BE5CE0E94D08755
:103F700068A379A38AA39BA3BE016F5F7F4FCE0185
:103F800080960E94423FE2E7F6E284918F010F5F44
:103F90001F4F882321F00E94D640F801F6CFBE01C2
:103FA0006F5F7F4F8DEE99E00E9467988AE00E94D4
:103FB000D6400C941E2B83E50E942844882311F4DC
:103FC0000C941E2B0E947743E82E80E50E94284423
:103FD000882339F00E947743182F87FF03C00C9481
:103FE0001E2B1DE089E40E942844882341F00E9492
:103FF0008B4381110C94882BE4E8FCE00BC089E42E
:104000000E94DF43F6CF3196BCE0E73BFB0711F49B
:104010000C94882B84911813F6CF0C944D2BF090B0
:10402000D50481E0F826F092D504E5E0FAE0849129
:104030008F010F5F1F4F882321F00E94D640F801A7
:10404000F6CFFF2019F0EAEFF9E002C0EFEFF9E058
:1040500084918F010F5F1F4F882311F40C941E2B46
:104060000E94D640F801F4CF0E941F880C941E2BAA
:104070000E94C9980C941E2B0E94B04F0C941E2BCA
:1040800088E690E00E949F5281110C941E2B809133
:104090005E0683FF02C00C941E2B909161088091F4
:1040A000BE1898130C941E2B83E50E942844882385
:1040B00099F00E949B430E94C4EDCB010E941D7F9A
:1040C0000E949B4320E030E044EB52E40E940FE565
:1040D000181614F00E94C9980E945CD30C941E2BF1
:1040E0008EE40E942844882311F40C941E2B0E9415
:1040F0006743609378157093791580937A15909340
:104100007B150C941E2B83E50E94DF43882359F016
:1041100083E50E942844882319F00E94774301C058
:1041200080E080935E06E2E7F6E284918F010F5F04
:104130001F4F811103C0EEE1FAE004C00E94D64097
:10414000F801F3CF84918F010F5F1F4F882321F077
:104150000E94D640F801F6CF80915E06811140CED4
:10416000EAE1FAE018C0BB24B394B20E222319F09E
:104170008CE20E94D640F60185919491FC018491D5
:104180008F010F5F1F4F882321F00E94D640F80156
:10419000F6CF2B2D37CE84918F010F5F1F4F8823D1
:1041A00009F43ACE0E94D640F801F5CF83E50E948B
:1041B0002844811103C0E2E7F6E20DC00E94774374
:1041C0008D3320F480931F020C941E2B8CE380937C
:1041D0001F020C941E2B84918F010F5F1F4F8823A9
:1041E00021F00E94D640F801F6CF40911F0250E026
:1041F00060E070E085E29AE00E9414988AE00E94F4
:10420000D6400C941E2B89E690E00E949F528111AB
:1042100011C0ECE2FAE084918F010F5F1F4F8823F9
:1042200021F00E94D640F801F6CF0E94BB7F8AE0C1
:104230000E94D6401092AE080C949D2B83E50E94FC
:104240002844882311F40C941E2B0E947743182FC6
:104250008D3308F01CE31093BB080E94E2D56B017C
:104260007C01212F30E0A8EEB3E00E94FEEBC60EE9
:10427000D71EE81EF91EC092B708D092B808E09287
:10428000B908F092BA080C941E2B0E94AC570C94FB
:104290001E2B80915E0683FF02C00C941E2B83E5CB
:1042A0000E942844882311F40C941E2B0E949B43E7
:1042B0000E94C4EDCB010E9456430C941E2B80E556
:1042C0000E942844811106C083E50E942844882367
:1042D00061F006C00E94774381110C941E2BF4CF2D
:1042E0000E9467436F3F710510F06FEF70E07093AD
:1042F0004B1860934A180C941E2B80E50E942844AA
:10430000811106C010924B1810924A180C941E2B63
:104310000E946743672B11F00C941E2BF3CF0E9471
:1043200078800E94D36710924B1810924A1868EE5A
:1043300073E080E090E00E94AC870C941E2B2093E9
:10434000E5040C941E2B0E947B7C0C941E2B83E5B1
:104350000E94DF43882311F40C941E2B0E949B4380
:1043600020E030E04AE754E40E9475E50E94CBED7E
:104370006093B3087093B4088093B5089093B6081F
:104380000C941E2B8CE590E00E949F5281110C949E
:104390001E2B69E572E07DA36CA3B6E3CB2EB8E1DA
:1043A000DB2EF12CACA1BDA18D91BDA3ACA30E94CD
:1043B000DF43882309F477C0B3E0FB126CC080911F
:1043C00061088D5F0E9471562B013C0120E030E0B6
:1043D00040EA51E40E940FE5E090610887FF50C079
:1043E0000E2D10E00D5F1F4F000F111F000F111F4A
:1043F000F801EA5CF74EA30192016081718182812C
:1044000093810E9452ED4B015C019B01AC016091D4
:10441000FE177091FF1780910018909101180E946B
:1044200075E56093FE177093FF17809300189093C3
:104430000118F801EE5DF74E1F01A501940160819E
:104440007181828193810E9475E5D1016D937D9385
:104450008D939C9313970154174EF80160817181DD
:10446000828193810E9414E5A50194010E9475E563
:104470000E94CBEDD8016D937D938D939C93139700
:10448000B4E0EB9EF0011124EE5BF74E40825182C6
:104490006282738208C08F2D0E947156F60160837C
:1044A000718382839383F394F4E0CF0ED11C24E0D4
:1044B000F21278CF0E944AD50C941E2B0E94966768
:1044C00083E50E942844882309F430C90E94674389
:1044D0006230710509F02AC90E9449B48BE50E9437
:1044E000D64060915115709152158091531590915D
:1044F000541542E00E946641409155155091561561
:10450000609157157091581582E39AE00E94319896
:104510004091591550915A1560915B1570915C1539
:104520008FE29AE00E9431988DE50E94D6408AE0A1
:104530000E94D6400C941E2B84918F010F5F1F4F59
:10454000882321F00E94D640F801F6CF60E084E095
:104550009BE00E94B37961E08DEF9AE00E94B3790D
:1045600061E082EF9AE00E94B37961E082EE9AE026
:104570000E94B37960E089ED9AE00E94B37961E02E
:104580008FEC9AE00E94B37960E085EC9AE00E949B
:10459000B37960E08DEB9AE00E94B37961E08FEA35
:1045A0009AE00E94B37960E081EA9AE00E94B379D0
:1045B00060E082E99AE00E94B37961E084E89AE0E1
:1045C0000E94B37961E08EE69AE00E94B37961E0DF
:1045D0008DE59AE00E94B37960E088E49AE00E9459
:1045E000B37961E085E39AE00E94B3790C941E2BC5
:1045F0000091CA141091CB1483E0D12C40E081507B
:10460000E9F0D8019C91292F2B7F2134C1F7119615
:104610002C912133A1F7913421F0953421F441E01C
:1046200002C0DD24D39498012E5F3F4F89012F5F94
:104630003F4FF80190819032C9F3E1CF442369F0F4
:10464000E2E7F6E284917F012FEFE21AF20A882373
:1046500021F00E94D640F701F5CFDD2069F0EAEDA8
:10466000FBE084917F014FEFE41AF40A882321F0E4
:104670000E94D640F701F5CFD8018D918D01882396
:1046800009F4CACB0E94D640F7CF0E9488CD0C9483
:104690001E2B81E080937C0680937B060C941E2B5E
:1046A00010927C0610927B060C941E2B88EC90E0F6
:1046B0000E949F5281110C941E2B84E40E94DF43C0
:1046C000882309F45DC00E94D2436B017C0111E094
:1046D00020E030E0A9010E940FE5811101C010E047
:1046E0001093400620E030E0A901C701B6010E9406
:1046F0000FE5882309F444C00E94D243E091610889
:10470000B4E0EB9FF0011124E75BF94F6083718304
:104710008283938320E030E0A90160914906709183
:104720004A0680914B0690914C060E940FE581113C
:104730000CC080E090E0A0EEBFE380934906909328
:104740004A06A0934B06B0934C0620E030E0A90146
:1047500060914D0670914E0680914F0690915006E3
:104760000E940FE581110CC080E090E0A0EEBFE355
:1047700080934D0690934E06A0934F06B09350063B
:104780000E944D685BC789EC90E00E949F528111A6
:1047900055C7F9E5CF2EF2E0DF2EF12CF60181911D
:1047A0006F010E94DF438823C9F0F3E0FF1203C0CA
:1047B0000091610801C000E00F0D802F0E9490560B
:1047C00024E0029F80011124025F174E0E94CBED6E
:1047D000D8016D937D938D939C931397F394B4E0DC
:1047E000FB12DCCF0E948CD329C78BEC90E00E9497
:1047F0009F52811123C7E9E5EE2EE2E0FE2E00E094
:10480000F70181917F010E94DF438823A9F00330E3
:1048100019F4E091610801C0E0E01E2F100F812F14
:104820000E94905624E0129FF0011124EE5DF74E95
:1048300060837183828393830F5F043009F7FEC620
:1048400083E50E9428448823A1F00E94D24360930C
:104850000A1870930B1880930C1890930D1860939E
:10486000021870930318809304189093051810E0B1
:1048700001C011E080E50E942844882359F00E947D
:10488000D24360930A1870930B1880930C1890937E
:104890000D1810E082E50E942844882359F00E94F8
:1048A000D24360930618709307188093081890936A
:1048B000091810E084E50E942844882359F00E94DA
:1048C000D243609302187093031880930418909356
:1048D0000518B4C6112309F4B1C640910A185091C5
:1048E0000B1860910C1870910D1884EE9BE00E94DB
:1048F00031984091061850910718609108187091EE
:10490000091881EE9BE00E94319840910218509165
:10491000031860910418709105188EED9BE00E94B9
:1049200031988AE00E94D64089C681E50E94DF4323
:10493000882351F00E949C57609351067093520651
:10494000809353069093540683E50E94DF438823A7
:1049500051F00E94D2436093590670935A06809397
:104960005B0690935C0684E50E94DF43882351F048
:104970000E94D24360935506709356068093570663
:104980009093580688E50E94DF43882351F00E94E7
:10499000D2436093F2177093F3178093F4179093B8
:1049A000F51789E50E94DF43882351F00E94D24326
:1049B0006093F6177093F7178093F8179093F91791
:1049C0008AE50E94DF438823F1F00E94D24360937E
:1049D000FA177093FB178093FC179093FD172DEC3B
:1049E0003CEC4CEC5DE30E940FE5181664F0E4EF3C
:1049F000FBE084918F010F5F1F4F882321F00E94FD
:104A0000D640F801F6CF85E40E94DF43882309F4FD
:104A100015C60E94D2436093FE177093FF178093D0
:104A20000018909301180AC669E5C62E62E0D62EDA
:104A300070E8E72E76E0F72E10E0D6018D916D013B
:104A40000E94DF43882351F00E94D243F701608324
:104A5000718382839383812F0E945F521F5FF4E0F2
:104A6000EF0EF11C133049F70C94961B0E944AA3D9
:104A70008111E4C502E41BE144E658E15DA34CA3C7
:104A8000BE016F5F7F4F4B015BE9A52E5BE1B52E49
:104A90001B01F8016591759185919491ACA1BDA11F
:104AA000CD90DD90ED90FD90BDA3ACA3A701960144
:104AB0000E9457EC2B013C01F101608371838283DA
:104AC000938320E030E040EA51EC0E94B8EE87FD8D
:104AD0000AC020E030E040EA51E4C301B2010E9484
:104AE0000FE518162CF4F501849118160CF4CAC5BC
:104AF000D101CD90DD90ED90FD901D0120E030E0E2
:104B000040EA51ECC701B6010E94B8EE87FD0AC029
:104B100020E030E040EA51E4C701B6010E940FE511
:104B20001816D4F4E8E3FBE284918F010F5F1F4F66
:104B3000811103C0E6E2FCE004C00E94D640F80107
:104B4000F3CF84918F010F5F1F4F882309F476C53F
:104B50000E94D640F801F5CF0C5F1F4FBFEFAB1A94
:104B6000BB0AEEE4FBE1E017F10709F092CF40E861
:104B7000E42E46E0F42E10E0F40181919191A19190
:104B8000B1914F01F70181939193A193B1937F016B
:104B9000812F0E945F521F5F133071F70E94EA79E4
:104BA0004DC584918F010F5F1F4F882321F00E9414
:104BB000D640F801F6CF83E50E94DF43882321F039
:104BC0000E948B4380933A02ECE6FCE084918F01D3
:104BD0000F5F1F4F882321F00E94D640F801F6CFC7
:104BE00080913A02882319F0E4E6FCE002C0E8E68E
:104BF000FCE084918F010F5F1F4F811103C0ECE532
:104C0000FCE004C00E94D640F801F3CF84918F01EC
:104C10000F5F1F4F882321F00E94D640F801F6CF86
:104C20004090D6045090D7046090D8047090D90476
:104C30002091C9083091CA084091CB085091CC0806
:104C4000C301B2010E9458ECAB01BC018AE59CE0B3
:104C50000E9431988090DA049090DB04A090DC04EC
:104C6000B090DD042091CD083091CE084091CF085E
:104C70005091D008C501B4010E9458ECAB01BC01B1
:104C800087E59CE00E943198C090DE04D090DF045C
:104C9000E090E004F090E1042091D1083091D20836
:104CA0004091D3085091D408C701B6010E9458EC36
:104CB000AB01BC0184E59CE00E943198ECE4FCE08F
:104CC00084918F010F5F1F4F882321F00E94D640EF
:104CD000F801F6CF2091240230912502409126025E
:104CE00050912702C301B2010E9458ECAB01BC01F4
:104CF0008AE49CE00E943198209128023091290298
:104D000040912A0250912B02C501B4010E9458EC37
:104D1000AB01BC0187E49CE00E94319820912C02F9
:104D200030912D0240912E0250912F02C701B60101
:104D30000E9458ECAB01BC0184E49CE00E943198D5
:104D40008AE00E94D6407AC483E50E9428448823E2
:104D500009F474C40E946743709348026093470249
:104D60006DC48DED90E00E949F52811167C483E570
:104D70000E942844811103C0E2E7F6E23AC00091A4
:104D8000610810E00E946743000F111FF801ED5BFE
:104D9000FD4F718360838091610890E07C01EE0C8F
:104DA000FF1CEE0CFF1C8701055F1D4F880F991F2C
:104DB000FC01ED5BFD4F60817181072E000C880BBB
:104DC000990B0E9416E52AE037ED43E25CE30E946E
:104DD00075E5F701EF5BF94F208131814281538105
:104DE0000E9475E5D8016D937D938D939C931397E5
:104DF00025C484918F010F5F1F4F882321F00E94EB
:104E0000D640F801F6CF85E40E94D6408091610833
:104E1000805D0E94D640E0916108F0E0EE0FFF1F38
:104E2000ED5BFD4F608171818CE79CE00E944E98A4
:104E300085E20E94D6408AE00E94D640FFC380E50A
:104E40000E94DF43882309F4F9C30E9467436B0182
:104E50007C0183E50E942844882321F00E94674357
:104E60008B0102C00FEF1FEFC8010196039708F0F6
:104E7000E5C3D7FCE3C38C2DE4E8FCE094918917EB
:104E800009F40BC43196BCE0E73BFB07B9F708C453
:104E900085E40E942844811110C080E50E94DF4310
:104EA000882391F00E949B436093520870935308AB
:104EB000809354089093550807C00E947743882335
:104EC00061F3E8E3FBE271C089E40E94DF438823D9
:104ED00081F00E949B432CEA35EC47E25EE30E949E
:104EE00075E560934E0870934F0880935008909337
:104EF000510884E40E94DF43882381F00E949B4391
:104F00002CEA35EC47E25EE30E9452ED60935608CE
:104F1000709357088093580890935908E2E7F6E297
:104F200084918F010F5F1F4F882321F00E94D6408C
:104F3000F801F6CF409152085091530860915408FF
:104F4000709155088FEB9CE00E9431982CEA35EC6B
:104F500047E25EE360914E0870914F0880915008DF
:104F6000909151080E9452EDAB01BC018BEB9CE08B
:104F70000E9431982CEA35EC47E25EE360915608D6
:104F80007091570880915808909159080E9475E5D2
:104F9000AB01BC0187EB9CE00E9431988AE00E9443
:104FA000D6404CC30E94D640F80184918F010F5F18
:104FB0001F4F8111F7CFE3ECFCE084918F010F5F6D
:104FC0001F4F882309F43AC30E94D640F801F5CF59
:104FD00083E50E94DF43182F882371F00E949B43D2
:104FE0000E94C4ED709314026093130221E0672BBA
:104FF00009F020E020935D0680E50E94DF438823CE
:1050000059F02091130230911402232B11F00E94C9
:105010008B4380935D0612C3111110C3E2E7F6E2E1
:1050200084918F010F5F1F4F882321F00E94D6408B
:10503000F801F6CF80915D06882319F061E273E0F4
:1050400002C064E273E08AEE9CE00E94679860917F
:1050500013027091140289ED9CE00E944E98E5EDD8
:10506000FCE084918F010F5F1F4F882309F4E6C293
:105070000E94D640F801F5CF0E945F74DFC280E540
:105080000E94DF43882351F00E949B4360934A08AB
:1050900070934B0880934C0890934D0889E40E94CC
:1050A000DF43882381F00E949B432CEA35EC47E2E2
:1050B0005EE30E9475E5609346087093470880930D
:1050C00048089093490884E40E94DF43882381F0D4
:1050D0000E949B432CEA35EC47E25EE30E9452EDCE
:1050E0006093420870934308809344089093450866
:1050F000E2E7F6E284918F010F5F1F4F882321F0D2
:105100000E94D640F801F6CF40914A0850914B08D2
:1051100060914C0870914D0885E09DE00E943198A7
:105120002CEA35EC47E25EE360914608709147084F
:1051300080914808909149080E9452EDAB01BC0152
:1051400081E09DE00E9431982CEA35EC47E25EE375
:1051500060914208709143088091440890914508FD
:105160000E9475E5AB01BC018DEF9CE00E94319877
:105170008AE00E94D64062C280E50E9428448823CB
:1051800031F00E94774380937E0611E001C010E069
:1051900083E50E942844882329F00E948B43809352
:1051A0007F0601C011110E941174E2E7F6E28491BA
:1051B0008F010F5F1F4F882321F00E94D640F80116
:1051C000F6CF80917F0681110DC0E6E1FDE084916C
:1051D0008F010F5F1F4F882309F430C20E94D64011
:1051E000F801F5CF60917E0670E089E09DE00E94B5
:1051F0004E988AE00E94D64021C20E94B47A1EC214
:1052000088E50E94DF43D82E89E40E94DF43C82E40
:10521000882319F00E9467431DC0DD20C1F00E9461
:10522000D24320E030E040E251E40E9457EC20E01D
:1052300030E048EC51E40E9458EC2AE037ED43EAB4
:105240005CE30E9475E50E94C4ED653018F0AA2465
:10525000AA9401C0A62E89E50E94DF43F82E8AE4B5
:105260000E94DF43182F882319F00E9467431CC057
:10527000FF20C1F00E94D24320E030E040E251E440
:105280000E9457EC20E030E048EC51E40E9458ECDA
:105290002AE037ED43EA5CE30E9475E50E94C4ED25
:1052A000653010F00FEF01C0062F8AE50E94DF4342
:1052B000E82E811105C081E50E94DF43B82E01C0B0
:1052C000B12CC11001C010E0812F90E0D11002C0BC
:1052D00020E001C02F2D820F911D019721F4E110D4
:1052E0001CC0B1101AC0E8E3FBE284918F010F5F8C
:1052F0001F4F811103C0E6E4FDE004C00E94D640C8
:10530000F801F3CF84918F010F5F1F4F882309F4B9
:1053100095C10E94D640F801F5CFA7FC02C007FF57
:105320001AC0E8E3FBE284918F010F5F1F4F8111E8
:1053300003C0E7E2FDE004C00E94D640F801F3CFCD
:1053400084918F010F5F1F4F882309F477C10E945A
:10535000D640F801F5CF0E94D243EA2CAA0CFF08F0
:10536000A02F000FBB0BBB2099F025E02E9DF00174
:105370002F9DF00D1124EA0FFB1FEE0FFF1FEE0F04
:10538000FF1FE357F84E208131814281538103C0D2
:1053900020E030E0A901E5E0EE9D8001EF9D100DD9
:1053A00011240A0F1B1F000F111F000F111F03579D
:1053B000184E0E9458ECF8016083718382839383B6
:1053C0003DC10E94356F3AC10E9425BC37C183E5BB
:1053D0000E94DF43882321F00E948B4391E08927BC
:1053E0000E944AB62BC181E0809315080E941B6978
:1053F00010921508882309F421C1E2E7F6E28491AE
:105400008F010F5F1F4F811103C0E6E6FDE004C06E
:105410000E94D640F801F3CF84918F010F5F1F4F98
:10542000882309F40BC10E94D640F801F5CF81E032
:1054300080931B0283E50E942844882339F00E9450
:105440008B438111FBC00E9482B4F8C083E50E94A7
:10545000DF43F7CF1092E6040E947B7C1092010597
:105460008091E804823029F081E090E00E9448A811
:1054700002C01092E8041092F8041092F704DEC003
:105480000E940756DBC084EF91E00E94B2A3D6C011
:105490000E94075684E690E00E9448A88BE090E0C6
:1054A0009093771880937618C9C08AE50E94DF43ED
:1054B000882319F10E94D24360936C1870936D1881
:1054C00080936E1890936F1882E00E94D7421092DA
:1054D0006C1810926D1810926E1810926F1810922E
:1054E0005C1810925D1810925E1810925F186CE5AF
:1054F00078E182E00E9400D4A1C085E40E94DF43ED
:10550000882309F49BC00E94D24360937018709363
:105510007118809372189093731883E00E94D74299
:1055200010927018109271181092721810927318CD
:1055300010926018109261181092621810926318FD
:1055400060E678E183E00E9400D478C060E0C801A2
:105550000E947FEBC8010E944FEB682F70E080E053
:1055600090E00E944A418DE00E94D6408AE00E946D
:10557000D6400F5F1F4F043AFFE01F0739F75EC0A8
:105580000E946BA55BC0E090CC14F090CD141E2D52
:105590000E949667D090840E80E00E94F5501230F1
:1055A00020F08E2D0E94E67349C00E9496670E94EB
:1055B00052AC64E670E080E090E00E94AC87B701F6
:1055C00077278FE99DE00E944E988AE00E94D6409E
:1055D00060E070E081E99DE00E944E988AE00E94C0
:1055E000D64080910201113009F082C08095887008
:1055F0008093000164EF71E080E090E00E94AC874E
:10560000E092BE188D2D0E94F550E2E7F6E28491FB
:105610008F010F5F1F4F882321F00E94D640F801B1
:10562000F6CF6091BE1870E081E79DE00E944E9831
:105630008AE00E94D64002C00E946BA51092AE087C
:105640000E9465B47AC00E94AF560E9470B0F6CF37
:1056500011110C94CB1D0C94C41D0E942F8D0C9421
:10566000FA1D0E946743AB01BC014093B9135093EC
:10567000BA136093BB137093BC1389EE92E10E943E
:105680005599DCCFF7FAF094F7F8F094D101CD9268
:10569000DD92ED92FC9213972BCA0E94A5D7CECF34
:1056A0000E949667BC2C60E08C2D0E94E0A50F3F05
:1056B000BFEF1B0759F48C2D0E9488A531E020E034
:1056C000892B09F030E0032F122F05C0013011059E
:1056D00061F401E010E08B2D0E9488A580179107EE
:1056E00009F4ACCF0E942F8DF6CF00E010E0F3CF8D
:1056F000887080930001E3E8FDE084918F010F5FE3
:105700001F4F882309F476CF0E94D640F801F5CFC9
:1057100061E0812F0E94E0A56E2D812F0E94B1A52E
:10572000F12CB701812F0E941CA6193009F086CFF9
:10573000F0924B18E0924A1881CFEF960FB6F8948A
:10574000DEBF0FBECDBFDF91CF911F910F91FF90B4
:10575000EF90DF90CF90BF90AF909F908F907F9011
:105760006F905F904F903F902F900895AF92BF92AF
:10577000CF92DF92EF92FF920F931F93CF93DF931D
:10578000CDB7DEB76E970FB6F894DEBF0FBECDBFB4
:1057900085E2E2E8F4E1DF011D928A95E9F7809164
:1057A0009E0590919F058597DCF52FB7F894809121
:1057B0008805909189052FBF891B8F7789F14091CA
:1057C0009E0550919F059FB7F8948091890520917F
:1057D0008805821751F0E82FF0E0E85FFA4F20814A
:1057E0008F5F8F778093890502C02FEF3FEF9FBFB8
:1057F000FA01EE57FB4E2083809182148A3579F6A8
:1058000065E070E080E090E00E94E5A680919E0552
:1058100090919F05019690939F0580939E05BFCF21
:1058200080919E0590919F051816190614F00C940E
:10583000C83E019711F40C94BD3E909135148091AF
:10584000821498130C94BD3E909136148091831469
:1058500098130C94BD3E809185148093371483383F
:1058600011F00C94BD3E8091861490918714982776
:1058700089279827AC0160E070E04093381450937A
:10588000391460933A1470933B140091881410E01B
:1058900020E030E000933C1410933D1420933E141C
:1058A00030933F1442E8E42E44E1F42E40E050E00F
:1058B000BA01B2E0EB0EF11C401751076207730703
:1058C000D0F4DA01B595A795AA0FBB1FAB5CBB4E10
:1058D000F701D580ED2DF0E0BE2EAA24F701D68089
:1058E000F501ED291C96FC93EE931B974E5F5F4FDD
:1058F0006F4F7F4FDECF8631F0E19F0709F483C001
:10590000F8F4823030E1930709F4C0C038F481150F
:10591000904111F40C948A3E0C94A43E8830E0E14E
:105920009E0709F482C08231904111F00C94A43E8C
:1059300080914014909141140E941D7F0C94A43ECC
:10594000843320E1920711F40C94813E68F4803393
:10595000A0E19A0711F40C94473E8233904111F470
:105960000C94503E0C94A43E8234E4E19E0709F46A
:1059700052C08035954111F00C94A43E2091401402
:10598000309141148091B7189091B81828173907B1
:1059900010F00C94A43E8091050290910602281705
:1059A000390711F40C94A43E55E0880F991F5A95BD
:1059B000E1F76FEF7FEF8D5F9F490E941EA88091F6
:1059C0004014909141149093060280930502880F31
:1059D000991FFC01EB57F74E6081718182E595E1DB
:1059E0000E9445C1809105029091060275E0880FE2
:1059F000991F7A95E1F761E070EA8D5F9F490E94F7
:105A00001EA80C94A43E80914014909141140E94D1
:105A100056430C94A43E809140149091411490936D
:105A20000402809303020C94A43E80EA9FE00E944B
:105A300057EB6093040570930505809306059093DA
:105A400007052CE330E040E050E00E94AAEB9F9372
:105A50008F937F936F935F934F933F932F938AEC32
:105A60009DE09F938F938FE094E19F938F930E948B
:105A7000E0E46FE074E180E095E10E9409BF0FB6B9
:105A8000F894DEBF0FBECDBF0C94A43EE09140144D
:105A9000F0914114E83AF10510F00C94A43E8827E7
:105AA000EE58FF4F8F4F0C9443ECC0906418D09089
:105AB0006518E0906618F090671820E030E04CE53B
:105AC00053E4C701B6010E940FE587FD02C00C94A4
:105AD000A43E20E030E040E251E4C701B6010E945C
