:100000000C9424160C9455160C9455160C945516F5
:100010000C9455160C9455160C9455160C945516B4
:100020000C9455160C9455160C9455160C945516A4
:100030000C9455160C9455160C9455160C94551694
:100040000C9455160C94EE900C9455160C94551671
:100050000C9455160C9455160C9454800C9402D69E
:100060000C9455160C9403420C9455160C9455168A
:100070000C9455160C9455160C9455160C94551654
:100080000C9455160C9455160C9455160C94551644
:100090000C948E400C94B7400C9455160C94551645
:1000A0000C9455160C9455160C9455160C94551624
:1000B0000C9455160C9455160C9455160C94551614
:1000C0000C9455160C9455160C9455160C94551604
:1000D0000C9455160C9455160C9455160C945516F4
:1000E0000C94551633314631692DA62D112E4E2E06
:1000F000B92EF62E612FAE2FAB2DC42D532E6C2EA4
:10010000FB2E142FFB2F4930F32D0C2E9B2EB42EDB
:10011000432F5C2F9730E530F331F93183319F3134
:100120007A3A8B3AC83AD63AE33A073B2C3B843BBF
:10013000723CFE3C6B315931523DB83E783DA03D9A
:10014000C83DF03D183EB83EB83EB83EB83EB83E59
:10015000B83EB83EB83E503E533E573EB83EB83E1D
:10016000403E553CCD3B0F3C323CFD3115322D32EB
:1001700045325D3275328D32A532BD32D532ED3227
:1001800005331D3335334D3365337D339533AD330F
:10019000C533DD33F5330D3425343D3485346D34CA
:1001A00055349D34B534CD34E534FD34123527351E
:1001B0003C35513566357B359035A535BA35CF356B
:1001C000E435F9350E36233638364D3665367D360C
:1001D00095360937203737374E3765377C379337B1
:1001E000AA37C137D837EF3706381D3834384B387F
:1001F000623879389038A738BE38F3380439153961
:1002000026393739483959396A397B398C399D391A
:10021000AE39BF39D039F239033A143A253A363A71
:10022000AD36C436DB36F236E139473AD538E438F4
:10023000583A693A36423C424D4258426042754211
:100240006442754268426C4275427242FA8CFD8C7F
:10025000008D038D068D098D0C8D0F8D128D158DE2
:10026000188D1B8D1E8D0EA111A100A104A10AA144
:1002700048A115A119A11FA123A127A12DA131A139
:1002800035A148A13BA13FA143A159A65EA663A603
:100290006DA677A6F0A681A689A691A69BA6A5A67F
:1002A000AFA6BEA6C8A6F0A6D2A6DCA6E6A6F1CD4D
:1002B0000DCE65CFB4CFEFD0C1CFC8CFF8CFE1D04E
:1002C000FFCFE1D0084AD73B3BCE016E84BCBFFDD7
:1002D000C12F3D6C74319ABD56833DDA3D00C77F16
:1002E00011BED9E4BB4C3E916BAAAABE00000080AF
:1002F0003F05A84CCDB2D44EB93836A9020C50B93E
:10030000918688083CA6AAAA2ABE000000803F0762
:10031000634236B79BD8A71A39685618AEBAAB55A0
:100320008C1D3CB7CC5763BD6DEDFD753EF6177265
:1003300031BF000000803F08000000BE9224491237
:100340003EABAAAA2ABECDCCCC4C3E00000080BE5B
:10035000ABAAAAAA3E00000000BF000000803F0038
:1003600000000000084178D3BB4387D1133D190E2C
:100370003CC3BD4282AD2B3E68EC8276BED98FE194
:10038000A93E4C80EFFFBE01C4FF7F3F000000008C
:1003900000000C94D63A0C94E6A60C9448A10C9458
:1003A000C1370C94B7DE0C9438360C9435330C946A
:1003B000C8CF0C946C2E0C9445320C942D320C94B6
:1003C000033A0C9423360C94CD3B0C94E5300C94FA
:1003D00025340C94692D0C9468420C94128D0C9465
:1003E00075420C943D340C9464420C944E2E0C9443
:1003F00083310C9451350C9404A10C9490350C94D9
:10040000C42D0C94BE380C94FD8C0C94AFA60C94A7
:10041000843B0C94098D0C949D390C9466350C9496
:10042000C5330C9433310C94DCDE0C9423A10C9472
:1004300046310C9411A10C9490380C94E1390C9431
:10044000AE390C94ED3E0C9415320C943BA10C94F7
:100450000C690C94F2390C94AB2D0C944D330C9424
:1004600055340C944D360C9435A10C9479380C9479
:1004700000A10C94F32D0C94D5380C94323C0C94C0
:10048000F62E0C940EA10C9427A10C94FA8C0C94CB
:10049000008D0C940AA10C940F3C0C94B4CF0C94D6
:1004A000432F0C9436420C94523D0C9409370C9413
:1004B000C83D0C94B83E0C9443A10C94583A0C944B
:1004C0000E360C94F9310C94C83A0C94A7380C945D
:1004D000532E0C94E2680C945D320C94143A0C94F4
:1004E00006380C94112E0C940D340C9415A10C9418
:1004F000DD330C9477A60C9489A60C942DA10C9452
:10050000183E0C94CD340C94EF370C947B350C943E
:10051000073B0C9481A60C94E33A0C94473A0C9454
:1005200065330C94A5A60C94E1D00C944D420C9428
:100530001D330C94B92E0C9495360C9491A60C9402
:100540006C420C946D340C9475320C94E5340C941C
:1005500004390C94F0A60C9431A10C94AD360C9493
:10056000FB2E0C94363A0C947B390C94188D0C9419
:10057000A5320C94D2A60C94F3380C941E8D0C94D6
:1005800048390C9463A60C94142F0C947D330C946E
:10059000553C0C948AC80C94C8A60C946DA60C9477
:1005A00059A60C94693A0C9495330C94723C0C94B3
:1005B00020370C940C8D0C94F03D0C940DCE0C94C3
:1005C000FFCF0C94BEA60C94253A0C94068D0C9487
:1005D000783D0C948B3A0C943C420C943C350C9432
:1005E00026390C946B310C94B42E0C94E4350C9495
:1005F000FB2F0C9459390C9460420C94C1CF0C948D
:10060000403E0C947D360C944B380C94F2360C948E
:1006100015390C9465CF0C94EE3E0C9459310C9422
:10062000D5320C9437370C94573E0C9472420C948C
:10063000D0390C9493370C942C3B0C946A390C945D
:10064000DCA60C94FD340C941D380C94F3310C94FE
:10065000EFD00C94E4380C94612F0C94A03D0C94D2
:1006600034380C9465370C944E370C94F1CD0C94BF
:10067000BD320C94F9350C9458420C941FA10C9483
:10068000A5350C947C370C9405330C94038D0C9495
:10069000AE2F0C948C390C940F8D0C9497300C94D5
:1006A0009F310C94AD330C945EA60C9437390C94A6
:1006B000C4360C943FA10C94F5330C949B2E0C94EF
:1006C00065360C94FE3C0C9462380C940C2E0C9401
:1006D00012350C94158D0C94D8370C94A62D0C94CF
:1006E000FD310C94DB360C94BA350C94533E0C94CB
:1006F000ED320C945C2F0C9419A10C947A3A0C9462
:10070000F8CF0C949BA60C94BF390C941B8D0C94C1
:10071000CF350C949D340C9427350C94AA370C9447
:100720008D320C9449300C9485340C94B5340C946F
:10073000503E4E414E494E495459494E46CDCCCC7F
:100740003D0AD7233C17B7D13877CC2B329595E6A5
:10075000241FB14F0A000020410000C84200401C85
:100760004620BCBE4CCA1B0E5AAEC59D7400407AD2
:1007700010F35A00A0724E18090010A5D4E800002A
:10078000E87648170000E40B54020000CA9A3B00C8
:100790000000E1F505000080969800000040420F3F
:1007A000000000A08601000000102700000000E803
:1007B00003000000006400000000000A00000000C8
:1007C000000100000000002C76D888DC674F082369
:1007D000DFC1DFAE59E1B1B796E5E3E453C63AE6CF
:1007E00051997696E8E6C28426EB898C9B62ED40AF
:1007F0007C6FFCEFBC9C9F40F2BAA56FA5F49005FE
:100800005A2AF75C936B6CF9676DC11BFCE0E40D31
:1008100047FEF520E6B500D0ED902E030094357725
:10082000050080841E080000204E0A000000C80C4D
:10083000333333330F986E12831141EF8D211489B6
:100840003BE65516CFFEE6DB18D1844B381BF77C10
:100850001D901DA4BBE424203284725E228100C955
:10086000F124ECA1E53D27434F4D4D554E49434101
:1008700054494F4E0044525952554E004552524F22
:10088000525300494E464F004543484F0047322FD0
:1008900047332062616420706172616D65746572B6
:1008A000730A00206F6620004D424C2047323920E9
:1008B000706F696E74200059206F7574206F662008
:1008C00072616E67652028312D37292E0A00582065
:1008D0006F7574206F662072616E67652028312DF8
:1008E00037292E0A004D6573682070726F62696E39
:1008F0006720646F6E652E0A005374617274206DF8
:100900006573682070726F62696E672077697468BA
:100910002022473239205331222066697273742EA7
:100920000A004732380A4732392053320053746183
:1009300074653A20004D65736820626564206C65BB
:1009400076656C696E6720686173206E6F206461E4
:1009500074612E0A0053206F7574206F66207261D7
:100960006E67652028302D35292E0A004D65736885
:1009700020706F696E742063616E6E6F74206265A3
:10098000207265736F6C7665640A00456E6420663C
:10099000696C65206C6973740A00426567696E2032
:1009A00066696C65206C6973740A004D32303033AF
:1009B00000286E6F2066696C6529005344207072B0
:1009C000696E74696E67206279746520004E6F7479
:1009D000205344207072696E74696E670A00437513
:1009E0007272656E742066696C653A200050726997
:1009F0006E742074696D653A20006F6E2E0A006F68
:100A000066662E0A0047323620446562756720000C
:100A1000880883087C08750867086F666600444587
:100A20004255473A004D3131332053006F6B002C53
:100A300020002C2000544845524D414C5F50524FED
:100A400054454354494F4E004155544F5245504F21
:100A500052545F53445F53544154555300454D45E0
:100A60005247454E43595F5041525345520043410E
:100A700053455F4C494748545F4252494748544E9A
:100A800045535300544F47474C455F4C49474854E2
:100A90005300534F4654574152455F504F574552AC
:100AA000004255494C445F50455243454E54004C1A
:100AB0004556454C494E475F44415441005A5F50AA
:100AC000524F4245004155544F4C4556454C0050FD
:100AD00052494E545F4A4F420050524F475245537D
:100AE00053004155544F5245504F52545F54454D59
:100AF0005000564F4C554D455452494300454550C2
:100B0000524F4D0053455249414C5F584F4E5F582C
:100B10004F4646004649524D574152455F4E414D62
:100B2000453A4D61726C696E20312E312E39202884
:100B30004769746875622920534F555243455F4396
:100B40004F44455F55524C3A68747470733A2F2F76
:100B50006769746875622E636F6D2F4D61726C6981
:100B60006E4669726D776172652F4D61726C696E48
:100B70002050524F544F434F4C5F56455253494FAC
:100B80004E3A312E30204D414348494E455F54592D
:100B900050453A3344205072696E7465722045584E
:100BA0005452554445525F434F554E543A322055A6
:100BB0005549443A63656465326132662D3431616A
:100BC000322D343734382D396231322D6335356367
:100BD00036326633363766660A002F2F20002054DF
:100BE00000205200416363656C65726174696F6EC9
:100BF0003A2050005741524E494E4721204C6F77C2
:100C0000205A204A65726B206D6179206C656164A1
:100C100020746F20756E77616E74656420706175E5
:100C20007365732E0A00546F6F20666172206672BE
:100C30006F6D207265666572656E636520706F69A1
:100C40006E740A00205A00205900580020204D617F
:100C5000783A2000205A00205900580020204D6981
:100C60006E3A20004F6E20004F666600536F667428
:100C700020656E6473746F70733A200020466C6F49
:100C8000773A2000000136372603FFFFFF353C3D51
:100C9000380EFFFFFF312E303E23FFFFFFFF28FFFE
:100CA0000C0809FFFFFF1A1C18FFFF2AFFFFFFFFB8
:100CB000FFFF08440AFF4320643A0020693A0020FD
:100CC000703A00496E76616C69642065787472755B
:100CD0006465720A0043290A0061626C6564202819
:100CE0006D696E2074656D702000436F6C642065C3
:100CF0007874727564657320617265200020643AAF
:100D00000020693A0020703A0043617365206C69E5
:100D10006768743A200043617365206C6967687482
:100D20003A206F66660A004D65736820706F696EC1
:100D3000742063616E6E6F74206265207265736FDC
:100D40006C7665640A004D34323120696E636F72CF
:100D50007265637420706172616D6574657220756F
:100D6000736167650A00454550524F4D204F4B0A4D
:100D700000416374697665204578747275646572A4
:100D80003A20004530206163746976617465640AB5
:100D90000052656C61792053746174653A2000617A
:100DA000736B20666F7220453A20004D313036203B
:100DB00050256920532569004D313039205325696C
:100DC000004D3139302053256900256C75683A256E
:100DD0006C756D004731205A3130004731205A3050
:100DE00000473120583131302059313130204633DD
:100DF000303030004731205A313000473238004718
:100E000031205A30004731205833302059313930A1
:100E1000204633303030004731205A3130004732DD
:100E200038004731205A30004731205831393020BE
:100E300059313930204633303030004731205A3173
:100E40003000473238004731205A300047312058AF
:100E5000313930205933302046333030300047317B
:100E6000205A313000473238004731205A3000478D
:100E70003120583330205933302046333030300061
:100E80004731205A313000473238004D3230303649
:100E9000004D32303035004D313039205325690056
:100EA0004D32303035004D32303034004D31303934
:100EB00020532569004D32303034004D323030310E
:100EC000005431005430004D3231004D3530300087
:100ED0004D323035204535004D323035205A302ED8
:100EE00033004D32303520593130004D323035200D
:100EF000583130004D323034205431303030004DD4
:100F0000323034205233303030004D3230342050C3
:100F100031303030004D3230312045333030300008
:100F20004D323031205A313030004D32303120597D
:100F300031303030004D32303120583130303000D7
:100F40004D32303320453235004D323033205A3562
:100F5000004D3230332059333030004D32303320A1
:100F600058333030004D3932204539322E35393939
:100F7000004D3932205A343030004D393220593842
:100F800030004D393220583830004D33353520533C
:100F900030004D3335352053323535004732382057
:100FA0005A300047323820583020593000696E20BE
:100FB0006D6F76655F746F282920666565645F765E
:100FC000616C756520666F722058593A002C206557
:100FD000793D0029202D3E202865783D002C207386
:100FE000793D0020436F6E6E656374696E6720778C
:100FF00069746820766572746963616C206C696ECF
:1010000065202873783D002C2065793D0029202D2E
:101010003E202865783D002C2073793D0020436FE9
:101020006E6E656374696E67207769746820686F97
:1010300072697A6F6E74616C206C696E65202873BA
:10104000783D003F53706563696669656420582C7C
:101050005920636F6F7264696E617465206F757477
:10106000206F6620626F756E64732E0A003F2852EF
:101070002965706561742076616C7565206E6F748A
:1010800020706C61757369626C653B206D7573745B
:10109000206265206174206C6561737420312E0AB2
:1010A000003F2852296570656174206D7573742046
:1010B0006265207370656369666965642077686539
:1010C0006E206E6F74207573696E6720616E204CA0
:1010D00043442E0A003F5370656369666965642066
:1010E0006E6F7A7A6C652074656D70657261747567
:1010F0007265206E6F7420706C61757369626C65C7
:101100002E0A003F537065636966696564206669ED
:101110006C616D656E742073697A65206E6F7420E2
:10112000706C61757369626C652E0A003F5370655F
:10113000636966696564207072696D65206C656EAF
:10114000677468206E6F7420706C61757369626C6F
:10115000652E0A003F5072696D65206C656E67747C
:1011600068206D75737420626520737065636966AD
:10117000696564207768656E206E6F742075736989
:101180006E6720616E204C43442E0A003F53706509
:10119000636966696564206E6F7A7A6C652073692D
:1011A0007A65206E6F7420706C61757369626C650E
:1011B0002E0A003F53706563696669656420526555
:1011C0007472616374696F6E204D756C7469706CB4
:1011D000696572206E6F7420706C61757369626CE2
:1011E000652E0A003F52657472616374696F6E20E8
:1011F0004D756C7469706C696572206D75737420BF
:101200006265207370656369666965642E0A003FD4
:10121000537065636966696564206C6179657220E5
:10122000686569676874206E6F7420706C6175738F
:1012300069626C652E0A003F537065636966696573
:1012400064206265642074656D7065726174757286
:1012500065206E6F7420706C61757369626C6520B7
:101260002834302D31343043292E0A0047323620BD
:10127000636F6D6D616E6420737461727465642E4A
:101280002057616974696E6720666F7220686561B6
:101290007465722873292E0A002569730025696D0B
:1012A00020256973002569682025696D20256973EB
:1012B00000256964202569682025696D20256973EA
:1012C0000025697920256964202569682025696DD4
:1012D0002025697300656E7175657565696E672097
:1012E000220020496E76616C69642065787472759D
:1012F0006465722000000000000000000000000093
:101300000000005C4300005C4300007A43486F6DBE
:10131000652066616C6C69746F00206E6F74206567
:101320006E74657265642E0A0050726F7465637422
:1013300065642050696E0A0046696C616D656E7463
:1013400020757365643A200053746174733A200009
:101350002C204C6F6E67657374206A6F623A2000B0
:10136000546F74616C2074696D653A200053746128
:1013700074733A20002C204661696C65643A200041
:101380002C2046696E69736865643A200050726962
:101390006E74733A200053746174733A20002057BE
:1013A0003A0020746F6F206C6F6E672065787472DE
:1013B0007573696F6E2070726576656E7465640A08
:1013C0000020636F6C6420657874727573696F6E4A
:1013D0002070726576656E7465640A002020506C1A
:1013E000616E6E6572427566666572427974657388
:1013F0003A20002046726565204D656D6F72793A1E
:101400002000436F6D70696C65643A204F637420EF
:10141000323720323032300A00207C204175746827
:101420006F723A20286E6F6E652C20646566617558
:101430006C7420636F6E666967290A003230313838
:101440002D30382D303100204C617374205570647C
:10145000617465643A2000312E312E390A004D61E5
:10146000726C696E0020536F6674776172652052EA
:10147000657365740A00205761746368646F672040
:1014800052657365740A002042726F776E206F7523
:10149000742052657365740A002045787465726E15
:1014A000616C2052657365740A00506F77657255E0
:1014B000700A0073746172740A004D32303030006B
:1014C000473238205830004731205A3130004739F0
:1014D00031004D3234004D32332025730061757474
:1014E0006F25692E67006572726F7220777269745A
:1014F000696E6720746F2066696C650A00205A3A2D
:101500000020593A0020583A00656E6473746F7079
:1015100073206869743A2000446F6E6520736176A9
:10152000696E672066696C652E0A004D3239004588
:101530004550524F4D206461746173697A6520652E
:1015400072726F722E0A00290A0020627974657324
:101550003B20637263200053657474696E67732067
:1015600053746F726564202800290A002062797420
:1015700065733B2063726320002073746F7265642F
:101580002073657474696E6773207265747269651F
:10159000766564202800202863616C63756C617433
:1015A000656429210A0020213D2000454550524F05
:1015B0004D20435243206D69736D61746368202D23
:1015C000202873746F7265642920002053697A653E
:1015D0003A2000496E6465783A2000204D61726CB3
:1015E000696E3D563535290A0028454550524F4D04
:1015F0003D00454550524F4D2076657273696F6EC0
:10160000206D69736D61746368200020573A002073
:101610005A3A0020593A0020436F756E7420583AA8
:101620000020453A00205A3A0020593A00583A0022
:101630003A004361703A004B642000236465666998
:101640006E652044454641554C545F004B6920006F
:1016500023646566696E652044454641554C545F78
:10166000004B70200023646566696E652044454622
:1016700041554C545F00504944204175746F747556
:101680006E652066696E69736865642120507574A3
:1016900020746865206C617374204B702C204B693A
:1016A00020616E64204B6420636F6E7374616E748E
:1016B000732066726F6D2062656C6F7720696E743F
:1016C0006F20436F6E66696775726174696F6E2E05
:1016D000680A00504944204175746F74756E652026
:1016E0006661696C6564212074696D656F75740A43
:1016F0000045312054454D502046554F5249204316
:101700004F4E54524F4C4C4F004245442054484594
:10171000524D414C2052554E415741590054686535
:10172000726D616C2052756E617761790045312070
:1017300052697363616C642E2046616C6C69746FCE
:1017400000526973632E2070696174746F20666142
:101750006C6C69746F0048656174696E67206661BE
:10176000696C656400504944204175746F74756EEE
:1017700065206661696C6564212054656D706572D1
:10178000617475726520746F6F20686967680A00FC
:10179000204B643A2000204B693A2000204B703ADD
:1017A00020000A20436C6173736963205049442010
:1017B0000A002054753A2000204B753A2000206D15
:1017C00061783A2000206D696E3A200020643A204A
:1017D0000020626961733A200050494420417574C9
:1017E0006F74756E65206661696C65642120426165
:1017F00064206578747275646572206E756D6265BB
:10180000720A00504944204175746F74756E6520EA
:1018100073746172740A004F66660A0046616465FB
:10182000204865696768742000426564204C6576CD
:10183000656C696E6720004661696C656420746F31
:1018400020656E61626C6520426564204C6576653A
:101850006C696E670A004D65736820426564204CB0
:101860006576656C20646174613A0A00496E766140
:101870006C69642065787472756465720A006265CB
:10188000640A002C2073797374656D2073746F7013
:1018900070656421204865617465725F49443A202F
:1018A00000526973632E2070696174746F206661E1
:1018B0006C6C69746F0048656174696E672066615D
:1018C000696C65640045312052697363616C642EF4
:1018D0002046616C6C69746F0048656174696E675D
:1018E000206661696C65640055434349534F2E205F
:1018F0000070012C0190012701B0012201C0011DDF
:1019000001F00118011002130130020E01600209FA
:101910000190020401C002FF000003FA004003F539
:10192000008003F000D003EB002004E6007004E127
:1019300000E004DC004005D700C005D2004006CD21
:1019400000D006C8008007C3003008BE00F008B908
:1019500000C009B400B00AAF00B00BAA00D00CA5BB
:1019600000000EA000500F9B00C010960050129176
:101970000000148C00C0158700B0178200B0197DDC
:1019800000D01B7800001E730040206E009022697A
:1019900000F024640040275F0090295A00E02B5596
:1019A00000102E500020304B0010324600E0334132
:1019B0000090353C001037370070383200A0392DC8
:1019C00000B03A2800A03B2300603C1E00103D19E7
:1019D00000903D1400103E0F00703E0A00C03E050E
:1019E00000003F0000403FFBFF803FF6FFC03FF19B
:1019F000FF45312054454D502046554F5249204314
:101A00004F4E54524F4C4C4F004245442054484591
:101A1000524D414C2052554E415741590054686532
:101A2000726D616C2052756E61776179004531206D
:101A30004572723A2054454D50204D415353494D03
:101A400041004572723A2054454D50204D41535348
:101A5000494D412050494154544F004D415854453F
:101A60004D50207472696767657265640045312066
:101A70004572723A2054454D50204D494E494D41D2
:101A8000004572723A2054454D50204D494E494D03
:101A9000412050494154544F004D494E54454D50FA
:101AA00020747269676765726564004D3834205828
:101AB0002059205A204500202F002042403A002083
:101AC000403A00627573793A2070617573656420DD
:101AD000666F7220696E7075740A00627573793A68
:101AE0002070617573656420666F7220757365720E
:101AF0000A00627573793A2070726F636573736957
:101B00006E670A0055434349534F2E20004B494C02
:101B10004C2063617573656420627920746F6F2057
:101B20006D75636820696E61637469766520746998
:101B30006D65202D2063757272656E7420636F6D04
:101B40006D616E643A20004D3235005072696E74DA
:101B500065722068616C7465642E206B696C6C28FA
:101B6000292063616C6C6564210A0000000000009C
:101B70000000000000000000004842000048420051
:101B8000008040000000005761726E696E673A2065
:101B9000486F6D696E672042756D70204469766983
:101BA000736F72203C20310A000202040000A04042
:101BB0000000A0400000004000005C4300005C43C7
:101BC00000007A43FFFFFF4D33310053442072651C
:101BD0006164206572726F720A00446F6E652070D6
:101BE00072696E74696E672066696C650A0050726E
:101BF000696E7465722073746F70706564206475AB
:101C00006520746F206572726F72732E204669783A
:101C100020746865206572726F7220616E64207531
:101C20007365204D39393920746F20726573746182
:101C300072742E202854656D7065726174757265BA
:101C40002069732072657365742E20536574206952
:101C50007420616674657220726573746172746950
:101C60006E67290A004E6F20436865636B73756D5C
:101C70002077697468206C696E65206E756D626589
:101C8000722C204C617374204C696E653A20004EB2
:101C90006F20436865636B73756D20776974682086
:101CA0006C696E65206E756D6265722C204C617377
:101CB00074204C696E653A2000636865636B7375C8
:101CC0006D206D69736D617463682C204C61737451
:101CD000204C696E653A20004C696E65204E756D2A
:101CE000626572206973206E6F74204C617374207A
:101CF0004C696E65204E756D6265722B312C204CDF
:101D0000617374204C696E653A20004D31313000AA
:101D100024F4D43050C38E20C2A24017828B70119D
:101D2000127A910D816CD90AA861E108C75866073B
:101D3000615143061E4B5D05C145A7041A411104BC
:101D4000093D9803713931034036DB026533910256
:101D5000D4305402802E1D02632CEE01752AC50179
:101D6000B028A001102781018F2564012B244B018D
:101D7000E0223401AC211F018D200D01801FFC00E9
:101D8000841EED00971DDF00B81CD200E61BC600C4
:101D9000201BBC00641AB200B219A8000A19A000E6
:101DA0006A189900D117910040178B00B51684006E
:101DB00031167E00B31579003A157300C7146F0011
:101DC00058146A00EE1366008813630025135E0042
:101DD000C7125B006C12570015125400C11151005C
:101DE00070114F0021114B00D61049008D10470093
:101DF0004610440002104200C00F4000800F3E0019
:101E0000420F3C00060F3B00CB0E3800930E37000C
:101E10005C0E3500270E3400F30D3200C10D310089
:101E2000900D3000600D2E00320D2D00050D2C00A0
:101E3000D90C2B00AE0C2900850C29005C0C270066
:101E4000350C27000E0C2600E80B2400C40B2400E0
:101E5000A00B23007D0B23005A0B2100390B21001E
:101E6000180B2000F80A1F00D90A1E00BB0A1E002A
:101E70009D0A1D00800A1D00630A1C00470A1B0002
:101E80002C0A1B00110A1A00F7091A00DD091900B3
:101E9000C4091900AB091900920917007B09180041
:101EA000630917004C0916003609160020091600B0
:101EB0000A091500F5081500E0081400CC08140004
:101EC000B8081400A4081400900813007D0812003C
:101ED0006B0813005808120046081200340811005D
:101EE000230811001208110001081100F00710006A
:101EF000E0071000D0071000C0071000B0070F0067
:101F0000A107100091070E0083070F0074070F0050
:101F100065070E0057070E0049070E003B070D002E
:101F20002E070E0020070D0013070D0006070D00F9
:101F3000F9060C00ED060D00E0060C00D4060C00BE
:101F4000C8060C00BC060C00B0060C00A4060B0072
:101F500099060C008D060B0082060B0077060B001D
:101F60006C060B0061060A0057060B004C060A00BF
:101F700042060A0038060A002E060A0024060A0055
:101F80001A060A001006090007060A00FD050900E6
:101F9000F4050900EB050900E2050900D90509006F
:101FA000D0050900C7050900BE050900B5050800F0
:101FB000AD050800A50509009C050800940508006A
:101FC0008C050800840508007C05080074050800DD
:101FD0006C050700650508005D050700560508004B
:101FE0004E050700470507004005080038050700B3
:101FF000310507002A050700230507001C05060018
:10200000160507000F050700080506000205070072
:10201000FB040600F5040700EE040600E8040600D1
:10202000E2040700DB040600D5040600CF04060026
:10203000C9040600C3040600BD040600B704060078
:10204000B1040500AC040600A6040600A0040500C7
:102050009B04060095040500900406008A04050010
:1020600085040500800406007A0405007504050057
:10207000700405006B04050066040500610405009A
:102080005C04050057040500520405004D040500DA
:1020900048040500430405003E0404003A0405001A
:1020A00035040500300404002C0405002704040056
:1020B000230405001E0404001A040400160405008D
:1020C000110404000D0404000904050004040400C4
:1020D00000040400FC030400F8030400F4030400FB
:1020E000F0030400EC030400E8030400E40304002C
:1020F000E0030400DC030400D8030400D40304005C
:10210000D0030400CC030400C8030300C50303008C
:1021100024F404D9201BC40C5C0E9804C4095F028B
:1021200065077101F405F900FB04B300480487005A
:10213000C10369005803550003034500BE023A007D
:102140008402310053022A002902250004022000E3
:10215000E4011C00C8011900AF0117009801140028
:1021600084011300710110006101100051010E0083
:1021700043010D0036010B002B010B0020010B0069
:10218000150109000C01090003010800FB0008000B
:10219000F3000800EB000700E4000600DE00060084
:1021A000D8000600D2000600CC000500C7000500DC
:1021B000C2000500BD000400B9000400B500040021
:1021C000B1000400AD000400A9000400A500030054
:1021D000A20003009F0004009B000300980003007E
:1021E0009500020093000300900003008D000200A0
:1021F0008B000300880002008600020084000300B8
:10220000810002007F0002007D0002007B000200CE
:1022100079000200770001007600020074000200DD
:1022200072000100710002006F0002006D000100E9
:102230006C0002006A0001006900020067000100F2
:1022400066000100650001006400020062000100F8
:1022500061000100600001005F0002005D000100FC
:102260005C0001005B0001005A0001005900010000
:102270005800010057000100560001005500010000
:1022800054000100530000005300010052000100FF
:1022900051000100500001004F0001004E000000FD
:1022A0004E0001004D0001004C0001004B000000F9
:1022B0004B0001004A0001004900010048000000F5
:1022C00048000100470001004600000046000100F0
:1022D00045000000450001004400010043000000EB
:1022E00043000100420000004200010041000000E4
:1022F00041000100400001003F0000003F000100DC
:102300003E0000003E0001003D0000003D000100D5
:102310003C0000003C0000003C0001003B000000CD
:102320003B0001003A0000003A00010039000000C3
:1023300039000100380000003800000038000100BA
:1023400037000000370001003600000036000000B2
:1023500036000100350000003500000035000100A6
:10236000340000003400000034000100330000009D
:102370003300000033000100320000003200000092
:102380003200010031000000310000003100010086
:102390003000000030000000300001002F0000007D
:1023A0002F0000002F0000002F0001002E00000071
:1023B0002E0000002E0001002D0000002D00000066
:1023C0002D0000002D0001002C0000002C0000005A
:1023D0002C0000002C0001002B0000002B0000004E
:1023E0002B0000002B0001002A0000002A00000042
:1023F0002A0000002A000100290000002900000036
:102400002900000029000000290001002800000028
:10241000280000002800000028000000280001001B
:102420002700000027000000270000002700000010
:102430002700010026000000260000002600000002
:1024400026000000260001002500000025000000F5
:1024500025000000250000002500000025000100E7
:1024600024000000240000002400000024000000DC
:1024700024000100230000002300000023000000CE
:1024800023000000230000002300000023000100BF
:1024900022000000220000002200000022000000B4
:1024A00022000000220001002100000021000000A5
:1024B0002100000021000000210000002100000098
:1024C000210001002000000020000000200000008A
:1024D000200000002000000020000000200000007C
:1024E000200001001F0000001F0000001F0000006E
:1024F0001F0000001F0000001F0000001F0001005F
:102500001E0000001E0000001E0000001E00000053
:10251000043700001E290000511B00005810000065
:1025200010090000CC040000780200004101000006
:102530007C3C3E5E2B3D3F2F5B5D3B2C2A225C00AA
:1025400000002100240027002A002D003000330065
:1025500001010000040107010A010000220025001A
:1025600028002B002E00310034000201000005017C
:1025700008010B01000020002300260029002C0088
:102580002F003200000100000301060109010505CA
:102590000505070508080808020202020A0A0808D9
:1025A0000404040401010101010101010303030307
:1025B00003030303040707070C0C0C0C0C0C0C0C96
:1025C0000202020206060606060606060B0B0B0BA7
:1025D0000B0B0B0B010210202008081020401020CC
:1025E00040800201020108040201010204081020D7
:1025F00040808040201008040201800402018040D5
:10260000201008040201080402010102040810203D
:102610004080010204081020408000000A0B0209DB
:102620000C0D0E080703040100000000000000006C
:10263000000000000000000000000000000000009A
:102640000000000000001211100000000000000057
:10265000000000000000000000000000000000007A
:10266000556E6B6E6F776E20636F6D6D616E643A41
:10267000202200207072696D610A005A00590058CA
:1026800000486F6D65200043616E6E6F74206F703F
:10269000656E2073756264697220006563686F3AC5
:1026A0000046696C652064656C657465643A004435
:1026B000656C6574696F6E206661696C65642C2059
:1026C00046696C653A20006F70656E206661696CC2
:1026D00065642C2046696C653A2000526573656E0E
:1026E000643A20006F6B0020746F6F206C6F6E6710
:1026F00020657874727573696F6E20707265766587
:102700006E7465640A0020636F6C6420657874726F
:102710007573696F6E2070726576656E7465640A94
:102720000048617264636F64656420446566617526
:102730006C742053657474696E6773204C6F6164A8
:1027400065640A00E8030000E8030000640000007C
:10275000B80B0000B80B0000000096430000964341
:102760000000A0400000C8410000A0420000A042BC
:102770000000C8430000BE42004045442028696E66
:10278000290020286D6D29002044002049002020C8
:102790004D33303420500020440020490020204D8B
:1027A0003330312050005049442073657474696E91
:1027B00067733A0A00205A00205900202047323916
:1027C000205333205800205A0020204D343230202E
:1027D00053004D65736820426564204C6576656CD6
:1027E000696E673A0A00205A0020590020204D32B5
:1027F0003036205800486F6D65206F6666736574CB
:102800003A0A00204500205A002059002058002094
:10281000540020530020204D3230352051002045F7
:102820003C6D61785F655F6A65726B3E0020583C65
:102830006D61785F785F6A65726B3E20593C6D61AF
:10284000785F795F6A65726B3E205A3C6D61785F94
:102850007A5F6A65726B3E00416476616E6365649F
:102860003A20513C6D696E5F7365676D656E745F8C
:1028700074696D655F75733E20533C6D696E5F666C
:10288000656564726174653E20543C6D696E5F7469
:10289000726176656C5F66656564726174653E0041
:1028A00020540020520020204D323034205000416E
:1028B0006363656C65726174696F6E2028756E69FB
:1028C00074732F7332293A20503C7072696E745FB2
:1028D000616363656C3E20523C726574726163741F
:1028E0005F616363656C3E20543C74726176656C15
:1028F0005F616363656C3E0A0020450020204D3215
:102900003031205400205A0020590020204D323010
:10291000312058004D6178696D756D2041636365A4
:102920006C65726174696F6E2028756E6974732F9F
:102930007332293A0A0020450020204D32303320DE
:102940005400205A0020590020204D3230332058A6
:10295000004D6178696D756D20666565647261749E
:1029600065732028756E6974732F73293A0A0020E5
:10297000450020204D3932205400205A00205900B3
:1029800020204D39322058005374657073207065D3
:102990007220756E69743A0A0020204D3230302062
:1029A00044300A0020204D32303020543120440081
:1029B00020204D3230302044002044697361626C25
:1029C00065640A0046696C616D656E742073657498
:1029D00074696E67733A00203B0020204732005034
:1029E0006F7765722D6C6F73732066696C652077E5
:1029F00072697465206661696C65642E0A006F7087
:102A0000656E206661696C65642C2046696C653A68
:102A1000200057726974696E6720746F2066696C54
:102A2000653A200053442063617264206F6B0A0092
:102A30006F70656E526F6F74206661696C65640AB1
:102A400000766F6C756D652E696E697420666169BC
:102A50006C65640A00534420696E6974206661697C
:102A60006C0A0057726974696E6720746F2066691A
:102A70006C653A20006F70656E206661696C6564F4
:102A80002C2046696C653A20006F70656E20666187
:102A9000696C65642C2046696C653A200046696C57
:102AA000652073656C65637465640A002053697AF8
:102AB000653A200046696C65206F70656E65643A02
:102AC00020002066696C653A2000646F696E6700BB
:102AD0006672657368004E6F772000454E44205340
:102AE0005542524F5554494E450A002220706F738B
:102AF000002220706172656E743A22005355425272
:102B00004F5554494E452043414C4C2074617267E7
:102B100065743A220055434349534F2E2000747286
:102B200079696E6720746F2063616C6C20737562C5
:102B30002D67636F64652066696C657320776974BF
:102B40006820746F6F206D616E79206C6576656C9E
:102B5000732E204D4158206C6576656C2069733A60
:102B6000004572726F723A004572726F722077720E
:102B70006974696E6720746F20454550524F4D212E
:102B80000A00545249474745524544006F70656EEC
:102B9000003A200066696C616D656E74007A5F6D45
:102BA000696E00795F6D696E00785F6D696E0052C5
:102BB00065706F7274696E6720656E6473746F7090
:102BC000207374617475730A000A4D6561737572C0
:102BD000656420706F696E74733A0A005A206F66DC
:102BE000667365743A20004E756D20582C593A2052
:102BF000372C370A0025753A2530327500253032DA
:102C0000753A25303275006F70656E206661696CAB
:102C100065642C2046696C653A20004D323420539F
:102C2000256C64004D323320257300473238205222
:102C30003020583020593000473932205A2573202F
:102C400045257300DCDEB7DE11241FBECFEFD1E2D5
:102C5000DEBFCDBF00E00CBF14E0A0E0B2E0ECE2CC
:102C6000F3EE01E00BBF02C007900D92A43DB10747
:102C7000D9F72DE1A4EDB4E001C01D92A638B2074A
:102C8000E1F716E1C3E2D6E100E006C021970109B1
:102C9000802FFE010E9491ECC232D10780E008072C
:102CA000A9F70E94E4D70C9484F10C9400002F92B1
:102CB0003F924F925F926F927F928F929F92AF92CC
:102CC000BF92CF92DF92EF92FF920F931F93CF9319
:102CD000DF93CDB7DEB7EF970FB6F894DEBF0FBE28
:102CE000CDBF21E02093AE088091DE148D3409F42D
:102CF00039C5843511F40C94D72A873411F00C941B
:102D0000302B8091DC149091DD148531910509F40C
:102D100007C2B4F48430910534F482309105DCF5B7
:102D200097FF32C01BC58430910509F4C4C1449794
:102D300009F014C581E090E00E9486570C94322B74
:102D40008A32910509F4F1C37CF48C31910509F4C0
:102D5000EDC18D31910509F4EEC14A9709F0FEC429
:102D60000E949A450C94322B8B35910509F468C466
:102D70008C35910509F468C48A35910509F0EEC4D3
:102D80001092E6040C94322B80911B0281110C945A
:102D9000372B0C94322B20911B02222311F40C941C
:102DA000322B11E0029709F010E00E94C3561982FD
:102DB0001A821B821C821D821E821F82188682E557
:102DC0000E943C44882309F426C10E94E6434B013B
:102DD0005C0120E030E0A9010E945DE5882309F450
:102DE00030C14091D4185091D5186091D618709187
:102DF000D7184CA35DA36EA37FA36091D8187091E0
:102E0000D9188091DA189091DB1868A779A78AA75A
:102E10009BA78091C4189091C518A091C618B09135
:102E2000C7188CA79DA7AEA7BFA74091C8185091FF
:102E3000C9186091CA187091CB1848AB59AB6AABEE
:102E40007BAB9C01AD016CA17DA18EA19FA10E94D5
:102E50005DE581110DC028A939A94AA95BA968A51A
:102E600079A58AA59BA50E945DE5882309F4E9C0A0
:102E700020E030E0A901C501B4010E945DE5881F92
:102E80008827881F181749F060E070E080E89FEB02
:102E900068AF79AF8AAF9BAF08C080E090E0A0E850
:102EA000BFE388AF99AFAAAFBBAF2CA13DA14EA1A4
:102EB0005FA16CA57DA58EA59FA50E94A5EC6CAB1E
:102EC0007DAB8EAB9FAB28A539A54AA55BA568A9AC
:102ED00079A98AA99BA90E94A5EC6B017C012CA968
:102EE0003DA94EA95FA9CA01B9010E94C3E52B0102
:102EF0003C01A7019601C701B6010E94C3E59B01F1
:102F0000AC01C301B2010E94A6EC0E94A4EF2B0108
:102F10003C0120E030E040E05FE30E94C3E56CAF9D
:102F20007DAF8EAF9FAFA5019401C501B4010E9492
:102F3000C3E54B015C012CAD3DAD4EAD5FADCA01AB
:102F4000B9010E94C3E59B01AC01C501B4010E9417
:102F5000A5EC0E94A4EF28AD39AD4AAD5BAD0E944F
:102F6000C3E54B015C01C701B6019058A301920172
:102F70000E94A0EDA50194010E94C3E56B017C01B4
:102F80002CA53DA54EA55FA56CA17DA18EA19FA1FD
:102F90000E94A6EC20E030E040E05FE30E94C3E541
:102FA0009B01AC01C701B6010E94A6EC2CA13DA17A
:102FB0004EA15FA10E94A5EC69837A838B839C83D9
:102FC00028A939A94AA95BA968A579A58AA59BA5BD
:102FD0000E94A6EC20E030E040E05FE30E94C3E501
:102FE0006B017C01A30192016CA97DA98EA99FA907
:102FF0000E94A0EDA50194010E94C3E59B01AC01D4
:10300000C701B6010E94A6EC28A539A54AA55BA573
:103010000E94A5EC12C089E40E943C44882331F050
:103020000E94E64369837A838B839C838AE40E94AF
:103030003C44882331F00E94E6436D837E838F8376
:10304000988720E030E0A90169817A818B819C8199
:103050000E945DE581110EC020E030E0A9016D8184
:103060007E818F8198850E945DE5811103C0E1E634
:10307000FBE20DC0412FBE016F5F7F4F84EC98E1F2
:103080000E9471AC0C94322B0E94EA40F8018491AA
:103090008F010F5F1F4F8111F7CFEDE8F8E08491AA
:1030A0008F010F5F1F4F882311F40C94322B0E9465
:1030B000EA40F801F4CF80E50E943C44882329F0DF
:1030C0000E94B0576B017C0103C0C12CD12C76014A
:1030D00083E50E943C44882361F00E94AF4320E0D6
:1030E00030E04AE754E40E94C3E50E9419EE6B0108
:1030F0007C010E94AA670E94F6D5C60ED71EE81E64
:10310000F91E0E94F6D5DC01CB018C199D09AE0990
:10311000BF09B7FD02C00C94322B0E94438DF1CF42
:1031200080E090E00E9486570C94322B80E00E9451
:10313000F7530C94322B83E50E943C44882319F109
:103140000E948B43182F863068F0E5E5F9E0849102
:103150008F010F5F1F4F882309F4B5C10E94EA4019
:10316000F801F5CF833009F42CC130F4813091F1AE
:10317000823009F43EC008C0843009F474C185303F
:1031800009F481C101C010E00E94DC50811103C02C
:10319000E5E3F9E013C08091840E882319F069E11A
:1031A00073E002C06DE173E08DE299E00E947B98CC
:1031B0008AE00E94EA400E947FCC6BC184917F012B
:1031C0009FEFE91AF90A882309F463C10E94EA40D3
:1031D000F701F4CF0E9432CD10920102109200024A
:1031E00082E299E09093EB048093EA040E945753A3
:1031F0006AC1809100029091010297FF0DC0E9EF32
:10320000F8E084918F010F5F1F4F882309F45BC1A1
:103210000E94EA40F801F5CF0097A1F480913A02AC
:103220008093E70419821A821B821C8218A219A2B9
:103230001AA21BA2BE016F5F7F4FCE0180960E9433
:103240003FA327C0815067E00E945BEC80FF03C072
:1032500026E0291B922FA7E09A02F0011124E80F23
:10326000F11D87FDFA95EE0FFF1FEE0FFF1FE356CE
:10327000F84E8091DC189091DD18A091DE18B09185
:10328000DF1880839183A283B3838091E7048093C6
:103290003A028091000290910102813391050CF075
:1032A00067C010923A029C012F5F3F4F309301029A
:1032B0002093000267E00E945BEC80FF03C026E0E1
:1032C000291B922F4091DC185091DD186091DE1877
:1032D0007091DF1848A359A36AA37BA319821A82AD
:1032E0001B821C82B4E08B0290011124F901E95089
:1032F000FF4E4F012081318142815381F4E09F02D2
:10330000C0011124BC016D5E7E4E5B01DB016D913D
:103310007D918D919C91FE0131966F01E12CF12CF4
:1033200000EA10E40E94815119821A821B821C82D9
:10333000B601CE0180960E943FA3F5018081918164
:10334000A281B3818093D4189093D518A093D618F6
:10335000B093D718F40180819181A281B3818093C9
:10336000D8189093D918A093DA18B093DB1893C0AB
:1033700080E090E0A0EAB0E48093DC189093DD1840
:10338000A093DE18B093DF180E942A510E94AA670A
:103390008FEF9FEF9093010280930002E5EEF8E03B
:1033A00084918F010F5F1F4F882321F00E94EA4014
:1033B000F801F6CF81E00E94F75381E00E940951A5
:1033C0006AC088E50E943C44882399F00E947B43B0
:1033D0001FEF160F173078F0EEECF8E084918F01B4
:1033E0000F5F1F4F882309F46EC00E94EA40F80166
:1033F000F5CF88E533C089E50E943C44882399F0E5
:103400000E947B430FEF060F073078F0E7EBF8E000
:1034100084918F010F5F1F4F882309F454C00E94CD
:10342000EA40F801F5CF89E519C08AE50E943C44DD
:10343000882399F00E94E64327E0129FF0011124AF
:10344000E00FF11DEE0FFF1FEE0FFF1FE356F84ECA
:10345000608371838283938334C08AE50E94EA404B
:103460000E94D4D730C08AE50E943C448823A9F347
:103470000E94E6436093991770939A1780939B1765
:1034800090939C171EC080E00E9409510E9432CD8B
:1034900018C01230B1F460910002709101026133E2
:1034A000710514F061E370E088EA98E00E94629888
:1034B00061E370E083EA98E00E9462988AE00E94EB
:1034C000EA400E94FE798091E804813079F41092FC
:1034D000E8048091010581110C94322B8BE790E078
:1034E0000E945CA80E94BD8C0C94322B823011F09B
:1034F0000C94322B8091010581110AC01092E804CE
:1035000081E890E00E945CA80E94BD8C0C94322B54
:1035100082E990E00E945CA81092020281E0809310
:10352000F6040E941ED10C94322B80911B0288233A
:1035300011F40C94322B89E40E943C44E82E882339
:1035400021F00E947B43062F01C000E08AE40E9424
:103550003C44F82E882321F00E947B43162F01C0A3
:1035600010E0EE2011F0073020F4FF2081F017303A
:1035700070F0ECE6F9E084918F010F5F1F4F882314
:1035800011F40C94322B0E94EA40F801F4CF0E940F
:103590004944EE2091F044E00402F0011124ED5E74
:1035A000FE4E80819181A281B3818093C418909353
:1035B000C518A093C618B093C718FF2091F054E027
:1035C0001502F0011124E950FF4E80819181A28102
:1035D000B3818093C8189093C918A093CA18B09368
:1035E000CB1880E50E943C44882319F00E949F4339
:1035F00003C080E50E94F34386E40E943C44882394
:10360000D9F00E94E6436B017C0120E030E0A90183
:103610000E9406EF181684F420E030E040E752E400
:10362000C701B6010E94A0ED60933F027093400273
:1036300080934102909342020E9484B00C94322BFA
:103640002093E6040C94322B69E572E07DA36CA311
:103650000CEBC02E08E0D02E84ED882E88E1982E49
:1036600096EDA92E94E0B92E612C10E0ACA1BDA17D
:103670008D91BDA3ACA30E943C44882309F456C09D
:10368000812F0E94A456762EE72EF82E092F133094
:1036900059F0F50120813181428153810E94A5ECCE
:1036A000762EE72EF82E092FD4012D913D914D91C4
:1036B0005C91672D7E2D8F2D902F0E94A5EC1B0114
:1036C0002C012DEB37E346E855EB0E9406EF87FD12
:1036D0000AC02DEB37E346E855E3C201B1010E9471
:1036E0005DE518161CF5133079F4872D9E2DAF2D4E
:1036F000B02F8093E0189093E118A093E218B09354
:10370000E3186624639412C0A2019101F60160815E
:103710007181828193810E94A6ECD6016D937D9385
:103720008D939C931397812F0E9473521F5FB4E077
:10373000CB0ED11CE4E08E0E911CF4E0AF0EB11C58
:10374000143009F093CF662029F060EE78E183E031
:103750000E9414D40E94FE790C94322B0E947FA503
:103760000C94322B8091DC149091DD1486379105F6
:1037700009F452C70CF0C5C08C34910509F488C413
:103780000CF058C08931910509F4EDC21CF5843163
:10379000910509F4D9C17CF48131910509F459C22C
:1037A0002CF4029708F4D3C10C94D42A429709F45C
:1037B000DEC50C94D42A8631910509F490C20CF42C
:1037C0008AC28731910509F490C2489709F4A5C2CD
:1037D0000C94D42A8E31910509F483C384F48B317F
:1037E000910509F4DCC20CF4CCC28C31910509F4CA
:1037F0006EC34D9711F40C94322B0C94D42A8A3258
:10380000910509F4ECC34CF48F31910509F4C2C35E
:10381000809709F480C30C94D42A8133910509F46C
:1038200012C48B34910511F00C94D42A0E949698FE
:103830000C94322B8A36910509F455C58CF58335E5
:10384000910509F490C59CF48E34910509F428C4BF
:103850000CF422C48135910509F475C582359105B2
:1038600011F00C94D42A1092E5040C94322B8C3570
:10387000910509F49BC554F48435910509F477C585
:103880008535910509F477C50C94D42A88369105BD
:1038900009F40AC48936910509F4C9C40C94D42AE0
:1038A0008F36910509F443C48CF48C36910511F4DC
:1038B0000C94322B0CF435C58D36910509F4F9C4FE
:1038C0008E36910509F420C40C94D42A82379105D0
:1038D00009F408C65CF48037910511F40C94322B7E
:1038E0008137910509F476C40C94D42A8337910565
:1038F00009F427C18537910511F40C94322B0C94EF
:10390000D42A833621E0920711F40C94D0280CF0CD
:103910006BC08C3C910509F4A7C76CF58B399105F8
:1039200009F4A0C484F48837910509F4C6C60CF4E0
:10393000C0C68937910509F4C7C68C38910509F4CA
:10394000BCC40C94D42A883C910509F4C3C64CF439
:103950008E3B910511F00C94D42A0E94EC7C0C94BF
:10396000322B893C910509F422C78B3C910509F45F
:1039700050C70C94D42A8D3D910511F40C94C526A2
:103980009CF48E3C910511F40C94282514F40C94AD
:10399000A924833D910509F4D0C08C3D910511F413
:1039A0000C94B8260C94D42A8E3251E0950711F469
:1039B0000C94FC2764F4823E910511F40C94332797
:1039C0008D32914011F40C945C270C94D42A8F32E0
:1039D000A1E09A0711F40C9450288033914011F41F
:1039E0000C9453280C94D42A8B38E3E09E0711F4EE
:1039F0000C94322B0CF047C08C3A21E0920711F462
:103A00000C944A25ECF48A3951E0950711F40C9492
:103A1000322B4CF48039914011F00C94D42A0E943E
:103A2000AA670C94322B843AA1E09A0711F40C9403
:103A30001129853A914011F40C9414290C94D42A3C
:103A4000863FE1E09E0711F40C94F8297CF4843F52
:103A500021E0920711F40C94F529853F914011F073
:103A60000C94D42A0E943B6F0C94322B873F51E078
:103A7000950711F40C94FB29883F914011F40C94A4
:103A8000072A0C94D42A833D77E0970711F40C940D
:103A9000542A64F5873EB3E09B0711F40C942B2A5B
:103AA00094F4803A934011F00C94D42A8091DA1463
:103AB0009091DB1421E02093301140E060E00E94FF
:103AC00093C10C94322B803D27E0920711F40C94A3
:103AD0003E2A813D974011F00C94D42A0E941B5637
:103AE0008EE290E00E945CA80C94322B863D57E059
:103AF000950711F40C945C2A8CF4843D77E09707C9
:103B000011F40C94572A853D974011F00C94D42A57
:103B10008CE09EEF0E94C6A30C94322B873DB7E049
:103B20009B0711F40C94692A883D974011F00C947E
:103B3000D42A00EA1FE00C94BA2AEBE9F6E20C94CE
:103B4000E525E4E1FBE00CC5EAE9F9E086C0A090D8
:103B5000DA14B090DB1480E50E943C44882359F0CD
:103B60000E94B0576B017C0111E0672B682B692B19
:103B700031F410E004C010E0C12CD12C760183E5B3
:103B80000E943C44882311F40C943C2B0E94AF43C8
:103B900020E030E04AE754E40E94C3E50E9419EEB9
:103BA0006B017C0111110BC0672B682B692B39F459
:103BB000A114B10421F0D5018C91811102C010E053
:103BC00001C011E00E94AA671123B9F0EBE9F6E207
:103BD00084918F010F5F1F4F882321F00E94EA40DC
:103BE000F801F6CFF50181915F01882319F00E9459
:103BF000EA40F8CF8AE00E94EA4083E08093AE0872
:103C000081E08093D404C114D104E104F104B1F043
:103C10000E94F6D5C60ED71EE81EF91E0E94F6D5E4
:103C2000DC01CB018C199D09AE09BF09B7FF0DC09E
:103C30008091D40481110C94412B07C08091D4044D
:103C4000882319F00E94438DF9CF1092D4040C946C
:103C5000322B0E9468AC0C94322B84918F010F5F41
:103C60001F4F882321F00E94EA40F801F6CF1092FE
:103C7000CD1381E691E10E94B19B8BE1E1E6F1E198
:103C8000DE01159601900D928A95E1F780915F1102
:103C9000909160119C838B8385E093E09A83898364
:103CA00040E050E0BE016F5F7F4F80E090E00E94F7
:103CB000EAA9CE0101960E94B58CEBE8F9E0849167
:103CC0008F010F5F1F4F882311F40C94322B0E9439
:103CD000EA40F801F4CF0E9453BF0C94322B1092AB
:103CE0003111109232110C94322B0E944BACE091A6
:103CF000DA14F091DB148081882329F0803209F4F2
:103D000010823196F8CF40E061E08091DA14909112
:103D1000DB140E9493C10C94322B83E50E943C4437
:103D2000882381F00E947B43AB01BC014093C913FF
:103D30005093CA136093CB137093CC1389EF92E125
:103D40000E94699980913211882319F081E0809353
:103D5000311184E50E943C4481110C94322B0E9465
:103D600096980C94322B109231110E9433888BEA72
:103D700099E09093EB048093EA040E9457530C94CB
:103D8000322B80913211882311F40C94322B83E56D
:103D90000E943C4481110C94452B0C94322B83E4FB
:103DA0000E94F343882309F450C0EEEDF9E08491BA
:103DB0008F010F5F1F4F882321F00E94EA40F80116
:103DC000F6CF8091FC12811103C0E1EBF9E012C043
:103DD000BE016F5F7F4F89EF92E10E94789A8E015A
:103DE0000F5F1F4FD8018D918D01882349F10E94EB
:103DF000EA40F8CF84918F010F5F1F4F882301F1B4
:103E00000E94EA40F801F6CF10E1C12E1AE0D12E4F
:103E1000E12CF12C20E080915E0690E00E2C02C097
:103E2000959587950A94E2F780FDB1C1EFEFEE1A00
:103E3000FE0AF2E0CF0ED11C45E0E416F10459F77A
:103E40008AE00E94EA400C94322B80913211882340
:103E500039F080913111882319F0EBEBF9E003C0C0
:103E6000EDECF9E028C084918F010F5F1F4F88238C
:103E700021F00E94EA40F801F6CF6091C9137091D9
:103E8000CA138091CB139091CC134AE00E94F14069
:103E90008FE20E94EA406091C5137091C613809131
:103EA000C7139091C8134AE00E94F1408AE00E9433
:103EB000EA400C94322B84918F010F5F1F4F8823AF
:103EC00011F40C94322B0E94EA40F801F4CF40E048
:103ED00060E08091DA149091DB140E9493C10C94FD
:103EE000322B80913211882311F40C94322B89EFFC
:103EF00092E10E94D5C689EF92E10E94539A1092F6
:103F0000301110922F118091DA149091DB140E94DD
:103F1000B1AB0C94322B8091311181110E94AA67B0
:103F200080913211882311F40C94322B80E50E9489
:103F30003C44882319F00E949F4303C080E50E94FF
:103F4000F343182F482F61E08091DA149091DB142D
:103F50000E9493C183E50E943C44882381F00E9423
:103F60007B43AB01BC014093C9135093CA136093C8
:103F7000CB137093CC1389EF92E10E9469998091E1
:103F80003211882319F081E08093311111110C94C2
:103F9000322BE5CE0E94E48768A379A38AA39BA372
:103FA000BE016F5F7F4FCE0180960E94563FEBE9C6
:103FB000F6E284918F010F5F1F4F882321F00E944A
:103FC000EA40F801F6CFBE016F5F7F4F8DEE99E0BA
:103FD0000E947B988AE00E94EA400C94322B83E591
:103FE0000E943C44882311F40C94322B0E948B4392
:103FF000E82E80E50E943C44882339F00E948B43E0
:10400000182F87FF03C00C94322B1DE089E40E9417
:104010003C44882341F00E949F4381110C949C2BC7
:10402000E4E8FCE00BC089E40E94F343F6CF31964C
:10403000BCE0E73BFB0711F40C949C2B8491181314
:10404000F6CF0C94612BF090D50481E0F826F09225
:10405000D504E5E0FAE084918F010F5F1F4F8823BC
:1040600021F00E94EA40F801F6CFFF2019F0EAEFB4
:10407000F9E002C0EFEFF9E084918F010F5F1F4F6D
:10408000882311F40C94322B0E94EA40F801F4CFFB
:104090000E9433880C94322B0E94DD980C94322BB2
:1040A0000E94C44F0C94322B88E690E00E94B352D9
:1040B00081110C94322B80915E0683FF02C00C9418
:1040C000322B9091610880912E1998130C94322B09
:1040D00083E50E943C44882399F00E94AF430E94EC
:1040E00012EECB010E94317F0E94AF4320E030E00E
:1040F00044EB52E40E945DE5181614F00E94DD982E
:104100000E9470D30C94322B8EE40E943C4488238E
:1041100011F40C94322B0E947B43609388157093AA
:10412000891580938A1590938B150C94322B83E517
:104130000E94F343882359F083E50E943C4488237E
:1041400019F00E948B4301C080E080935E06EBE98A
:10415000F6E284918F010F5F1F4F811103C0EEE1E2
:10416000FAE004C00E94EA40F801F3CF84918F0185
:104170000F5F1F4F882321F00E94EA40F801F6CF1D
:1041800080915E06811140CEEAE1FAE018C0BB24BE
:10419000B394B20E222319F08CE20E94EA40F60199
:1041A00085919491FC0184918F010F5F1F4F8823AB
:1041B00021F00E94EA40F801F6CF2B2D37CE8491F2
:1041C0008F010F5F1F4F882309F43ACE0E94EA4007
:1041D000F801F5CF83E50E943C44811103C0EBE96F
:1041E000F6E20DC00E948B438D3320F480931F02B2
:1041F0000C94322B8CE380931F020C94322B84910D
:104200008F010F5F1F4F882321F00E94EA40F801C1
:10421000F6CF40911F0250E060E070E085E29AE046
:104220000E9428988AE00E94EA400C94322B89E68A
:1042300090E00E94B352811111C0ECE2FAE0849147
:104240008F010F5F1F4F882321F00E94EA40F80181
:10425000F6CF0E94CF7F8AE00E94EA401092AE081B
:104260000C94B12B83E50E943C44882311F40C94F8
:10427000322B0E948B43182F8D3308F01CE31093D0
:10428000BB080E94F6D56B017C01212F30E0A8EE1F
:10429000B3E00E944CECC60ED71EE81EF91EC09279
:1042A000B708D092B808E092B908F092BA080C9416
:1042B000322B0E94C0570C94322B80915E0683FFF4
:1042C00002C00C94322B83E50E943C44882311F4F5
:1042D0000C94322B0E94AF430E9412EECB010E943D
:1042E0006A430C94322B80E50E943C44811106C045
:1042F00083E50E943C44882361F006C00E948B4302
:1043000081110C94322BF4CF0E947B436F3F7105D7
:1043100010F06FEF70E07093BB186093BA180C94B4
:10432000322B80E50E943C44811106C01092BB18DC
:104330001092BA180C94322B0E947B43672B11F019
:104340000C94322BF3CF0E948C800E94E76710926E
:10435000BB181092BA1868EE73E080E090E00E94FB
:10436000C0870C94322B2093E5040C94322B0E94CE
:104370008F7C0C94322B83E50E94F343882311F445
:104380000C94322B0E94AF4320E030E04AE754E423
:104390000E94C3E50E9419EE6093B3087093B408BD
:1043A0008093B5089093B6080C94322B8CE590E07E
:1043B0000E94B35281110C94322B69E572E07DA307
:1043C0006CA3B6EACB2EB8E1DB2EF12CACA1BDA1DB
:1043D0008D91BDA3ACA30E94F343882309F477C059
:1043E000B3E0FB126CC0809161088D5F0E9485561E
:1043F0002B013C0120E030E040EA51E40E945DE501
:10440000E090610887FF50C00E2D10E00D5F1F4F38
:10441000000F111F000F111FF801EA55F74EA301FD
:10442000920160817181828193810E94A0ED4B0194
:104430005C019B01AC0160916E1870916F188091C6
:104440007018909171180E94C3E560936E18709374
:104450006F188093701890937118F801EE56F74E0C
:104460001F01A501940160817181828193810E9465
:10447000C3E5D1016D937D938D939C931397015D5B
:10448000164EF80160817181828193810E9462E5FC
:10449000A50194010E94C3E50E9419EED8016D9315
:1044A0007D938D939C931397B4E0EB9EF0011124C0
:1044B000EE54F74E408251826282738208C08F2D83
:1044C0000E948556F6016083718382839383F394FF
:1044D000F4E0CF0ED11C24E0F21278CF0E945ED51A
:1044E0000C94322B0E94AA6783E50E943C448823E7
:1044F00009F430C90E947B436230710509F02AC972
:104500000E945DB48BE50E94EA4060916115709154
:104510006215809163159091641542E00E947A4182
:1045200040916515509166156091671570916815F9
:1045300082E39AE00E9445984091691550916A156E
:1045400060916B1570916C158FE29AE00E9445980E
:104550008DE50E94EA408AE00E94EA400C94322BEA
:1045600084918F010F5F1F4F882321F00E94EA4042
:10457000F801F6CF60E084E09BE00E94C77961E03B
:104580008DEF9AE00E94C77961E082EF9AE00E9485
:10459000C77961E082EE9AE00E94C77960E089ED18
:1045A0009AE00E94C77961E08FEC9AE00E94C77997
:1045B00060E085EC9AE00E94C77960E08DEB9AE0BC
:1045C0000E94C77961E08FEA9AE00E94C77960E0B3
:1045D00081EA9AE00E94C77960E082E99AE00E944D
:1045E000C77961E084E89AE00E94C77961E08EE6CD
:1045F0009AE00E94C77961E08DE59AE00E94C77950
:1046000060E088E49AE00E94C77961E085E39AE07F
:104610000E94C7790C94322B0091DA141091DB14AC
:1046200083E0D12C40E08150E9F0D8019C91292F02
:104630002B7F2134C1F711962C912133A1F79134AE
:1046400021F0953421F441E002C0DD24D394980197
:104650002E5F3F4F89012F5F3F4FF80190819032CD
:10466000C9F3E1CF442369F0EBE9F6E284917F01DD
:104670002FEFE21AF20A882321F00E94EA40F701A4
:10468000F5CFDD2069F0EAEDFBE084917F014FEF8B
:10469000E41AF40A882321F00E94EA40F701F5CFDA
:1046A000D8018D918D01882309F4CACB0E94EA407C
:1046B000F7CF0E949CCD0C94322B81E080937C0636
:1046C00080937B060C94322B10927C0610927B0612
:1046D0000C94322B88EC90E00E94B35281110C9420
:1046E000322B84E40E94F343882309F45DC00E94C6
:1046F000E6436B017C0111E020E030E0A9010E945B
:104700005DE5811101C010E01093400620E030E02B
:10471000A901C701B6010E945DE5882309F444C0E0
:104720000E94E643E0916108B4E0EB9FF0011124A0
:10473000E75BF94F608371838283938320E030E0ED
:10474000A9016091490670914A0680914B069091AB
:104750004C060E945DE581110CC080E090E0A0EE67
:10476000BFE38093490690934A06A0934B06B0930B
:104770004C0620E030E0A90160914D0670914E0694
:1047800080914F06909150060E945DE581110CC00A
:1047900080E090E0A0EEBFE380934D0690934E063C
:1047A000A0934F06B09350060E9461685BC789ECE6
:1047B00090E00E94B352811155C7F9E5CF2EF2E087
:1047C000DF2EF12CF60181916F010E94F3438823C3
:1047D000C9F0F3E0FF1203C00091610801C000E0DE
:1047E0000F0D802F0E94A45624E0029F8001112407
:1047F0000258174E0E9419EED8016D937D938D9348
:104800009C931397F394B4E0FB12DCCF0E94A0D3E7
:1048100029C78BEC90E00E94B352811123C7E9E5D0
:10482000EE2EE2E0FE2E00E0F70181917F010E9472
:10483000F3438823A9F0033019F4E091610801C023
:10484000E0E01E2F100F812F0E94A45624E0129F3B
:10485000F0011124EE56F74E6083718382839383B7
:104860000F5F043009F7FEC683E50E943C448823AD
:10487000A1F00E94E64360937A1870937B188093AE
:104880007C1890937D1860937218709373188093BE
:1048900074189093751810E001C011E080E50E9433
:1048A0003C44882359F00E94E64360937A18709341
:1048B0007B1880937C1890937D1810E082E50E940D
:1048C0003C44882359F00E94E64360937618709325
:1048D0007718809378189093791810E084E50E94F7
:1048E0003C44882359F00E94E64360937218709309
:1048F00073188093741890937518B4C6112309F433
:10490000B1C640917A1850917B1860917C187091D3
:104910007D1884EE9BE00E94459840917618509156
:104920007718609178187091791881EE9BE00E9459
:104930004598409172185091731860917418709155
:1049400075188EED9BE00E9445988AE00E94EA402F
:1049500089C681E50E94F343882351F00E94B05735
:1049600060935106709352068093530690935406B9
:1049700083E50E94F343882351F00E94E64360934D
:10498000590670935A0680935B0690935C0684E503
:104990000E94F343882351F00E94E643609355063A
:1049A00070935606809357069093580688E50E94A8
:1049B000F343882351F00E94E6436093621870939A
:1049C0006318809364189093651889E50E94F343F7
:1049D000882351F00E94E64360936618709367182D
:1049E00080936818909369188AE50E94F34388239E
:1049F000F1F00E94E64360936A1870936B188093FD
:104A00006C1890936D182DEC3CEC4CEC5DE30E941F
:104A10005DE5181664F0E4EFFBE084918F010F5F11
:104A20001F4F882321F00E94EA40F801F6CF85E469
:104A30000E94F343882309F415C60E94E64360935D
:104A40006E1870936F1880937018909371180AC63F
:104A500069E5C62E62E0D62E70E8E72E76E0F72EE6
:104A600010E0D6018D916D010E94F343882351F02F
:104A70000E94E643F7016083718382839383812FD1
:104A80000E9473521F5FF4E0EF0EF11C133049F7E0
:104A90000C94AA1B0E945EA38111E4C50BE61BE1E6
:104AA00044ED58E15DA34CA3BE016F5F7F4F4B0106
:104AB00054ECA52E5BE1B52E1B01F80165917591B3
:104AC00085919491ACA1BDA1CD90DD90ED90FD902C
:104AD000BDA3ACA3A70196010E94A5EC2B013C014C
:104AE000F101608371838283938320E030E040EAA8
:104AF00051EC0E9406EF87FD0AC020E030E040EA5A
:104B000051E4C301B2010E945DE518162CF4F501D1
:104B1000849118160CF4CAC5D101CD90DD90ED90AA
:104B2000FD901D0120E030E040EA51ECC701B601E4
:104B30000E9406EF87FD0AC020E030E040EA51E421
:104B4000C701B6010E945DE51816D4F4E1E6FBE268
:104B500084918F010F5F1F4F811103C0E6E2FCE0DB
:104B600004C00E94EA40F801F3CF84918F010F5FE7
:104B70001F4F882309F476C50E94EA40F801F5CF5B
:104B80000C5F1F4FBFEFAB1ABB0AE7E7FBE1E01773
:104B9000F10709F092CF40E8E42E46E0F42E10E051
:104BA000F40181919191A191B1914F01F70181930C
:104BB0009193A193B1937F01812F0E9473521F5F44
:104BC000133071F70E94FE794DC584918F010F5FFC
:104BD0001F4F882321F00E94EA40F801F6CF83E5B9
:104BE0000E94F343882321F00E949F4380933A025E
:104BF000ECE6FCE084918F010F5F1F4F882321F0CA
:104C00000E94EA40F801F6CF80913A02882319F019
:104C1000E4E6FCE002C0E8E6FCE084918F010F5F6F
:104C20001F4F811103C0ECE5FCE004C00E94EA4084
:104C3000F801F3CF84918F010F5F1F4F882321F07C
:104C40000E94EA40F801F6CF4090D6045090D70475
:104C50006090D8047090D9042091C9083091CA0896
:104C60004091CB085091CC08C301B2010E94A6EC40
:104C7000AB01BC018AE59CE00E9445988090DA0473
:104C80009090DB04A090DC04B090DD042091CD086E
:104C90003091CE084091CF085091D008C501B401A1
:104CA0000E94A6ECAB01BC0187E59CE00E94459800
:104CB000C090DE04D090DF04E090E004F090E104C6
:104CC0002091D1083091D2084091D3085091D40856
:104CD000C701B6010E94A6ECAB01BC0184E59CE0D3
:104CE0000E944598ECE4FCE084918F010F5F1F4F18
:104CF000882321F00E94EA40F801F6CF2091240297
:104D0000309125024091260250912702C301B20141
:104D10000E94A6ECAB01BC018AE49CE00E9445988D
:104D2000209128023091290240912A0250912B02B1
:104D3000C501B4010E94A6ECAB01BC0187E49CE074
:104D40000E94459820912C0230912D0240912E0214
:104D500050912F02C701B6010E94A6ECAB01BC0125
:104D600084E49CE00E9445988AE00E94EA407AC46C
:104D700083E50E943C44882309F474C40E947B4369
:104D800070934802609347026DC48DED90E00E94DD
:104D9000B352811167C483E50E943C44811103C072
:104DA000EBE9F6E23AC00091610810E00E947B4313
:104DB000000F111FF801ED5BFD4F7183608380913F
:104DC000610890E07C01EE0CFF1CEE0CFF1C8701DB
:104DD000055F1D4F880F991FFC01ED5BFD4F608142
:104DE0007181072E000C880B990B0E9464E52AE064
:104DF00037ED43E25CE30E94C3E5F701EF5BF94F57
:104E000020813181428153810E94C3E5D8016D9395
:104E10007D938D939C93139725C484918F010F5F8D
:104E20001F4F882321F00E94EA40F801F6CF85E465
:104E30000E94EA4080916108805D0E94EA40E09112
:104E40006108F0E0EE0FFF1FED5BFD4F60817181A7
:104E50008CE79CE00E94629885E20E94EA408AE02A
:104E60000E94EA40FFC380E50E94F343882309F4CF
:104E7000F9C30E947B436B017C0183E50E943C44A3
:104E8000882321F00E947B438B0102C00FEF1FEFAC
:104E9000C8010196039708F0E5C3D7FCE3C38C2D46
:104EA000E4E8FCE09491891709F40BC43196BCE066
:104EB000E73BFB07B9F708C485E40E943C44811135
:104EC00010C080E50E94F343882391F00E94AF4315
:104ED0006093520870935308809354089093550838
:104EE00007C00E948B43882361F3E1E6FBE271C0B7
:104EF00089E40E94F343882381F00E94AF432CEAA7
:104F000035EC47E25EE30E94C3E560934E08709380
:104F10004F08809350089093510884E40E94F34313
:104F2000882381F00E94AF432CEA35EC47E25EE330
:104F30000E94A0ED6093560870935708809358081C
:104F400090935908EBE9F6E284918F010F5F1F4FB0
:104F5000882321F00E94EA40F801F6CF40915208E0
:104F60005091530860915408709155088FEB9CE064
:104F70000E9445982CEA35EC47E25EE360914E08CA
:104F800070914F0880915008909151080E94A0EDB7
:104F9000AB01BC018BEB9CE00E9445982CEA35EC00
:104FA00047E25EE360915608709157088091580877
:104FB000909159080E94C3E5AB01BC0187EB9CE0CE
:104FC0000E9445988AE00E94EA404CC30E94EA4051
:104FD000F80184918F010F5F1F4F8111F7CFE3EC30
:104FE000FCE084918F010F5F1F4F882309F43AC3BF
:104FF0000E94EA40F801F5CF83E50E94F343182FA1
:10500000882371F00E94AF430E9412EE7093140245
:105010006093130221E0672B09F020E020935D06E6
:1050200080E50E94F343882359F0209113023091C8
:105030001402232B11F00E949F4380935D0612C33C
:10504000111110C3EBE9F6E284918F010F5F1F4F3E
:10505000882321F00E94EA40F801F6CF80915D0696
:10506000882319F061E273E002C064E273E08AEE23
:105070009CE00E947B98609113027091140289ED6C
:105080009CE00E946298E5EDFCE084918F010F5F47
:105090001F4F882309F4E6C20E94EA40F801F5CFC9
:1050A0000E947374DFC280E50E94F343882351F0AD
:1050B0000E94AF4360934A0870934B0880934C085A
:1050C00090934D0889E40E94F343882381F00E9465
:1050D000AF432CEA35EC47E25EE30E94C3E5609300
:1050E000460870934708809348089093490884E4E1
:1050F0000E94F343882381F00E94AF432CEA35ECF1
:1051000047E25EE30E94A0ED60934208709343087B
:105110008093440890934508EBE9F6E284918F016F
:105120000F5F1F4F882321F00E94EA40F801F6CF5D
:1051300040914A0850914B0860914C0870914D087D
:1051400085E09DE00E9445982CEA35EC47E25EE35D
:1051500060914608709147088091480890914908ED
:105160000E94A0EDAB01BC0181E09DE00E9445984A
:105170002CEA35EC47E25EE3609142087091430807
:1051800080914408909145080E94C3E5AB01BC01A1
:105190008DEF9CE00E9445988AE00E94EA4062C23E
:1051A00080E50E943C44882331F00E948B43809329
:1051B0007E0611E001C010E083E50E943C44882394
:1051C00029F00E949F4380937F0601C011110E9425
:1051D0002574EBE9F6E284918F010F5F1F4F88235E
:1051E00021F00E94EA40F801F6CF80917F068111FC
:1051F0000DC0E6E1FDE084918F010F5F1F4F882312
:1052000009F430C20E94EA40F801F5CF60917E06B1
:1052100070E089E09DE00E9462988AE00E94EA4086
:1052200021C20E94C87A1EC288E50E94F343D82E8C
:1052300089E40E94F343C82E882319F00E947B431F
:105240001DC0DD20C1F00E94E64320E030E040E5D3
:1052500051E40E94A5EC20E030E040E851E40E94D7
:10526000A6EC20E030E040E05DE30E94C3E50E9450
:1052700012EE673018F0AA24AA9401C0A62E89E580
:105280000E94F343F82E8AE40E94F343182F8823E8
:1052900019F00E947B431CC0FF20C1F00E94E6432E
:1052A00020E030E040E551E40E94A5EC20E030E051
:1052B00040E851E40E94A6EC20E030E040E05DE3ED
:1052C0000E94C3E50E9412EE673010F00FEF01C09C
:1052D000062F8AE50E94F343E82E811105C081E57F
:1052E0000E94F343B82E01C0B12CC11001C010E0E0
:1052F000812F90E0D11002C020E001C02F2D820F3D
:10530000911D019721F4E1101CC0B1101AC0E1E613
:10531000FBE284918F010F5F1F4F811103C0E6E410
:10532000FDE004C00E94EA40F801F3CF84918F01B0
:105330000F5F1F4F882309F495C10E94EA40F801CE
:10534000F5CFA7FC02C007FF1AC0E1E6FBE284919B
:105350008F010F5F1F4F811103C0E7E2FDE004C022
:105360000E94EA40F801F3CF84918F010F5F1F4F35
:10537000882309F477C10E94EA40F801F5CF0E9422
:10538000E643EA2CAA0CFF08A02F000FBB0BBB20A2
:1053900099F027E02E9DF0012F9DF00D1124EA0FCA
:1053A000FB1FEE0FFF1FEE0FFF1FE356F84E20818D
:1053B00031814281538103C020E030E0A901E7E060
:1053C000EE9D8001EF9D100D11240A0F1B1F000F91
:1053D000111F000F111F0356184E0E94A6ECF80172
:1053E00060837183828393833DC10E94496F3AC178
:1053F0000E9439BC37C183E50E94F343882321F022
:105400000E949F4391E089270E945EB62BC181E0F4
:10541000809315080E942F6910921508882309F4BB
:1054200021C1EBE9F6E284918F010F5F1F4F8111DB
:1054300003C0E6E6FDE004C00E94EA40F801F3CFB5
:1054400084918F010F5F1F4F882309F40BC10E94C5
:10545000EA40F801F5CF81E080931B0283E50E94CA
:105460003C44882339F00E949F438111FBC00E9475
:1054700096B4F8C083E50E94F343F7CF1092E60498
:105480000E948F7C109201058091E804823029F0FF
:1054900081E090E00E945CA802C01092E8041092A3
:1054A000F8041092F704DEC00E941B56DBC084EFA4
:1054B00091E00E94C6A3D6C00E941B5684E690E0ED
:1054C0000E945CA88BE090E09093E7188093E61828
:1054D000C9C08AE50E94F343882319F10E94E6437C
:1054E0006093DC187093DD188093DE189093DF18BA
:1054F00082E00E94EB421092DC181092DD181092AC
:10550000DE181092DF181092CC181092CD1810925D
:10551000CE181092CF186CEC78E182E00E9414D47F
:10552000A1C085E40E94F343882309F49BC00E9434
:10553000E6436093E0187093E1188093E21890932B
:10554000E31883E00E94EB421092E0181092E118F9
:105550001092E2181092E3181092D0181092D118FD
:105560001092D2181092D31860ED78E183E00E9477
:1055700014D478C060E0C8010E94CDEBC8010E943D
:105580009DEB682F70E080E090E00E945E418DE02E
:105590000E94EA408AE00E94EA400F5F1F4F043AEF
:1055A000FFE01F0739F75EC00E947FA55BC0E09057
:1055B000DC14F090DD141E2D0E94AA67D090840E9A
:1055C00080E00E940951123020F08E2D0E94FA7363
:1055D00049C00E94AA670E9466AC64E670E080E061
:1055E00090E00E94C087B70177278FE99DE00E9475
:1055F00062988AE00E94EA4060E070E081E99DE004
:105600000E9462988AE00E94EA4080910201113073
:1056100009F082C0809588708093000164EF71E08A
:1056200080E090E00E94C087E0922E198D2D0E94AC
:105630000951EBE9F6E284918F010F5F1F4F882338
:1056400021F00E94EA40F801F6CF60912E1970E037
:1056500081E79DE00E9462988AE00E94EA4002C0D1
:105660000E947FA51092AE080E9479B47AC00E9471
:10567000C3560E9484B0F6CF11110C94DF1D0C9418
:10568000D81D0E94438D0C940E1E0E947B43AB01DB
:10569000BC014093C9135093CA136093CB1370930A
:1056A000CC1389EF92E10E946999DCCFF7FAF0946C
:1056B000F7F8F094D101CD92DD92ED92FC92139720
:1056C0002BCA0E94B9D7CECF0E94AA67BC2C60E03B
:1056D0008C2D0E94F4A50F3FBFEF1B0759F48C2DB2
:1056E0000E949CA531E020E0892B09F030E0032FD7
:1056F000122F05C00130110561F401E010E08B2D7F
:105700000E949CA58017910709F4ACCF0E94438D9D
:10571000F6CF00E010E0F3CF887080930001E3E85B
:10572000FDE084918F010F5F1F4F882309F476CF2E
:105730000E94EA40F801F5CF61E0812F0E94F4A5B4
:105740006E2D812F0E94C5A5F12CB701812F0E94DB
:1057500030A6193009F086CFF092BB18E092BA1843
:1057600081CFEF960FB6F894DEBF0FBECDBFDF91AD
:10577000CF911F910F91FF90EF90DF90CF90BF904E
:10578000AF909F908F907F906F905F904F903F90E1
:105790002F900895AF92BF92CF92DF92EF92FF9237
:1057A0000F931F93CF93DF93CDB7DEB76E970FB6EE
:1057B000F894DEBF0FBECDBF85E2E2E9F4E1DF0180
:1057C0001D928A95E9F780919E0590919F05859796
:1057D000DCF52FB7F89480918805909189052FBF4B
:1057E000891B8F7789F140919E0550919F059FB746
:1057F000F8948091890520918805821751F0E82F4F
:10580000F0E0E85FFA4F20818F5F8F778093890502
:1058100002C02FEF3FEF9FBFFA01EE56FB4E2083F1
:10582000809192148A3579F665E070E080E090E02E
:105830000E94F9A680919E0590919F0501969093F4
:105840009F0580939E05BFCF80919E0590919F05F7
:105850001816190614F00C94DC3E019711F40C9400
:10586000D13E909145148091921498130C94D13E9E
:10587000909146148091931498130C94D13E80918A
:10588000951480934714833811F00C94D13E809185
:10589000961490919714982789279827AC0160E077
:1058A00070E0409348145093491460934A147093E5
:1058B0004B140091981410E020E030E000934C1459
:1058C00010934D1420934E1430934F1442E9E42E5C
:1058D00044E1F42E40E050E0BA01B2E0EB0EF11CDE
:1058E0004017510762077307D0F4DA01B595A79501
:1058F000AA0FBB1FAB5BBB4EF701D580ED2DF0E0CF
:10590000BE2EAA24F701D680F501ED291C96FC9342
:10591000EE931B974E5F5F4F6F4F7F4FDECF863109
:10592000F0E19F0709F483C0F8F4823030E1930777
:1059300009F4C0C038F48115904111F40C949E3ED6
:105940000C94B83E8830E0E19E0709F482C08231B1
:10595000904111F00C94B83E8091501490915114E4
:105960000E94317F0C94B83E843320E1920711F4F9
:105970000C94953E68F48033A0E19A0711F40C94DE
:105980005B3E8233904111F40C94643E0C94B83E1B
:105990008234E4E19E0709F452C08035954111F04C
:1059A0000C94B83E209150143091511480912719D5
:1059B000909128192817390710F00C94B83E80915F
:1059C0000502909106022817390711F40C94B83E8D
:1059D00055E0880F991F5A95E1F76FEF7FEF8D5FC4
:1059E0009F490E9432A88091501490915114909335
:1059F000060280930502880F991FFC01EB50F74EB9
:105A00006081718182E595E10E9459C18091050212
:105A10009091060275E0880F991F7A95E1F761E091
:105A200070EA8D5F9F490E9432A80C94B83E809125
:105A30005014909151140E946A430C94B83E809186
:105A400050149091511490930402809303020C948B
:105A5000B83E80EA9FE00E94A5EB60930405709336
:105A6000050580930605909307052CE330E040E0A0
:105A700050E00E94F8EB9F938F937F936F935F9317
:105A80004F933F932F938AEC9DE09F938F938FE1E9
:105A900094E19F938F930E942EE56FE174E180E083
:105AA00095E10E941DBF0FB6F894DEBF0FBECDBFBB
:105AB0000C94B83EE0915014F0915114E83AF1057D
:105AC00010F00C94B83E8827EE58FF4F8F4F0C947F
:105AD00091ECC090D418D090D518E090D618F090E2
